{
  "contractName": "Kittycontract",
  "abi": [
    {
      "anonymous": false,
      "inputs": [
        {
          "indexed": true,
          "internalType": "address",
          "name": "owner",
          "type": "address"
        },
        {
          "indexed": true,
          "internalType": "address",
          "name": "approved",
          "type": "address"
        },
        {
          "indexed": true,
          "internalType": "uint256",
          "name": "tokenId",
          "type": "uint256"
        }
      ],
      "name": "Approval",
      "type": "event"
    },
    {
      "anonymous": false,
      "inputs": [
        {
          "indexed": true,
          "internalType": "address",
          "name": "from",
          "type": "address"
        },
        {
          "indexed": true,
          "internalType": "address",
          "name": "to",
          "type": "address"
        },
        {
          "indexed": true,
          "internalType": "uint256",
          "name": "tokenId",
          "type": "uint256"
        }
      ],
      "name": "Transfer",
      "type": "event"
    },
    {
      "anonymous": false,
      "inputs": [
        {
          "indexed": false,
          "internalType": "address",
          "name": "owner",
          "type": "address"
        },
        {
          "indexed": false,
          "internalType": "uint256",
          "name": "kittenId",
          "type": "uint256"
        },
        {
          "indexed": false,
          "internalType": "uint256",
          "name": "mumId",
          "type": "uint256"
        },
        {
          "indexed": false,
          "internalType": "uint256",
          "name": "dadId",
          "type": "uint256"
        },
        {
          "indexed": false,
          "internalType": "uint256",
          "name": "genes",
          "type": "uint256"
        }
      ],
      "name": "birthEvent",
      "type": "event"
    },
    {
      "anonymous": false,
      "inputs": [
        {
          "indexed": true,
          "internalType": "address",
          "name": "from",
          "type": "address"
        },
        {
          "indexed": true,
          "internalType": "address",
          "name": "to",
          "type": "address"
        },
        {
          "indexed": true,
          "internalType": "uint256",
          "name": "tokenId",
          "type": "uint256"
        }
      ],
      "name": "transferEvent",
      "type": "event"
    },
    {
      "constant": true,
      "inputs": [],
      "name": "_gen0Counter",
      "outputs": [
        {
          "internalType": "uint256",
          "name": "",
          "type": "uint256"
        }
      ],
      "payable": false,
      "stateMutability": "view",
      "type": "function"
    },
    {
      "constant": true,
      "inputs": [],
      "name": "_owner",
      "outputs": [
        {
          "internalType": "address",
          "name": "",
          "type": "address"
        }
      ],
      "payable": false,
      "stateMutability": "view",
      "type": "function"
    },
    {
      "constant": true,
      "inputs": [
        {
          "internalType": "uint256",
          "name": "",
          "type": "uint256"
        }
      ],
      "name": "kittyIndexToOwner",
      "outputs": [
        {
          "internalType": "address",
          "name": "",
          "type": "address"
        }
      ],
      "payable": false,
      "stateMutability": "view",
      "type": "function"
    },
    {
      "constant": false,
      "inputs": [
        {
          "internalType": "uint256",
          "name": "genes",
          "type": "uint256"
        }
      ],
      "name": "createKittyGen0",
      "outputs": [
        {
          "internalType": "uint256",
          "name": "",
          "type": "uint256"
        }
      ],
      "payable": false,
      "stateMutability": "nonpayable",
      "type": "function"
    },
    {
      "constant": true,
      "inputs": [
        {
          "internalType": "uint256",
          "name": "kittyId",
          "type": "uint256"
        }
      ],
      "name": "getKitty",
      "outputs": [
        {
          "internalType": "uint256",
          "name": "genes",
          "type": "uint256"
        },
        {
          "internalType": "uint64",
          "name": "birthTime",
          "type": "uint64"
        },
        {
          "internalType": "uint32",
          "name": "mumId",
          "type": "uint32"
        },
        {
          "internalType": "uint32",
          "name": "dadId",
          "type": "uint32"
        },
        {
          "internalType": "uint16",
          "name": "generation",
          "type": "uint16"
        }
      ],
      "payable": false,
      "stateMutability": "view",
      "type": "function"
    },
    {
      "constant": true,
      "inputs": [
        {
          "internalType": "address",
          "name": "owner",
          "type": "address"
        }
      ],
      "name": "balanceOf",
      "outputs": [
        {
          "internalType": "uint256",
          "name": "balance",
          "type": "uint256"
        }
      ],
      "payable": false,
      "stateMutability": "view",
      "type": "function"
    },
    {
      "constant": true,
      "inputs": [],
      "name": "totalSupply",
      "outputs": [
        {
          "internalType": "uint256",
          "name": "total",
          "type": "uint256"
        }
      ],
      "payable": false,
      "stateMutability": "view",
      "type": "function"
    },
    {
      "constant": true,
      "inputs": [],
      "name": "name",
      "outputs": [
        {
          "internalType": "string",
          "name": "tokenName",
          "type": "string"
        }
      ],
      "payable": false,
      "stateMutability": "view",
      "type": "function"
    },
    {
      "constant": true,
      "inputs": [],
      "name": "symbol",
      "outputs": [
        {
          "internalType": "string",
          "name": "tokenSymbol",
          "type": "string"
        }
      ],
      "payable": false,
      "stateMutability": "view",
      "type": "function"
    },
    {
      "constant": true,
      "inputs": [
        {
          "internalType": "uint256",
          "name": "tokenId",
          "type": "uint256"
        }
      ],
      "name": "ownerOf",
      "outputs": [
        {
          "internalType": "address",
          "name": "owner",
          "type": "address"
        }
      ],
      "payable": false,
      "stateMutability": "view",
      "type": "function"
    },
    {
      "constant": false,
      "inputs": [
        {
          "internalType": "address",
          "name": "to",
          "type": "address"
        },
        {
          "internalType": "uint256",
          "name": "tokenId",
          "type": "uint256"
        }
      ],
      "name": "transfer",
      "outputs": [],
      "payable": false,
      "stateMutability": "nonpayable",
      "type": "function"
    }
  ],
  "bytecode": "0x6080604052336000806101000a81548173ffffffffffffffffffffffffffffffffffffffff021916908373ffffffffffffffffffffffffffffffffffffffff160217905550610e93806100536000396000f3fe608060405234801561001057600080fd5b50600436106100a95760003560e01c8063a45f4bfc11610071578063a45f4bfc14610298578063a9059cbb14610306578063b2bdfa7b14610354578063d5a776ca1461039e578063e98b7f4d146103e0578063f227d80d14610472576100a9565b806306fdde03146100ae57806318160ddd146101315780636352211e1461014f57806370a08231146101bd57806395d89b4114610215575b600080fd5b6100b6610490565b6040518080602001828103825283818151815260200191508051906020019080838360005b838110156100f65780820151818401526020810190506100db565b50505050905090810190601f1680156101235780820380516001836020036101000a031916815260200191505b509250505060405180910390f35b6101396104cd565b6040518082815260200191505060405180910390f35b61017b6004803603602081101561016557600080fd5b81019080803590602001909291905050506104da565b604051808273ffffffffffffffffffffffffffffffffffffffff1673ffffffffffffffffffffffffffffffffffffffff16815260200191505060405180910390f35b6101ff600480360360208110156101d357600080fd5b81019080803573ffffffffffffffffffffffffffffffffffffffff169060200190929190505050610574565b6040518082815260200191505060405180910390f35b61021d6105bd565b6040518080602001828103825283818151815260200191508051906020019080838360005b8381101561025d578082015181840152602081019050610242565b50505050905090810190601f16801561028a5780820380516001836020036101000a031916815260200191505b509250505060405180910390f35b6102c4600480360360208110156102ae57600080fd5b81019080803590602001909291905050506105fa565b604051808273ffffffffffffffffffffffffffffffffffffffff1673ffffffffffffffffffffffffffffffffffffffff16815260200191505060405180910390f35b6103526004803603604081101561031c57600080fd5b81019080803573ffffffffffffffffffffffffffffffffffffffff1690602001909291908035906020019092919050505061062d565b005b61035c6107e0565b604051808273ffffffffffffffffffffffffffffffffffffffff1673ffffffffffffffffffffffffffffffffffffffff16815260200191505060405180910390f35b6103ca600480360360208110156103b457600080fd5b8101908080359060200190929190505050610805565b6040518082815260200191505060405180910390f35b61040c600480360360208110156103f657600080fd5b8101908080359060200190929190505050610897565b604051808681526020018567ffffffffffffffff1667ffffffffffffffff1681526020018463ffffffff1663ffffffff1681526020018363ffffffff1663ffffffff1681526020018261ffff1661ffff1681526020019550505050505060405180910390f35b61047a610a09565b6040518082815260200191505060405180910390f35b60606040518060400160405280600f81526020017f426f6f7463616d704b6974746965730000000000000000000000000000000000815250905090565b6000600280549050905090565b60008160028054905011610539576040517f08c379a0000000000000000000000000000000000000000000000000000000008152600401808060200182810382526027815260200180610e166027913960400191505060405180910390fd5b6003600083815260200190815260200160002060009054906101000a900473ffffffffffffffffffffffffffffffffffffffff169050919050565b6000600460008373ffffffffffffffffffffffffffffffffffffffff1673ffffffffffffffffffffffffffffffffffffffff168152602001908152602001600020549050919050565b60606040518060400160405280600381526020017f424b540000000000000000000000000000000000000000000000000000000000815250905090565b60036020528060005260406000206000915054906101000a900473ffffffffffffffffffffffffffffffffffffffff1681565b600073ffffffffffffffffffffffffffffffffffffffff168273ffffffffffffffffffffffffffffffffffffffff1614156106d0576040517f08c379a000000000000000000000000000000000000000000000000000000000815260040180806020018281038252601b8152602001807f7175657279207472616e7366657220746f20302061646472657373000000000081525060200191505060405180910390fd5b3073ffffffffffffffffffffffffffffffffffffffff168273ffffffffffffffffffffffffffffffffffffffff161415610755576040517f08c379a0000000000000000000000000000000000000000000000000000000008152600401808060200182810382526022815260200180610e3d6022913960400191505060405180910390fd5b61075f3382610a0f565b6107d1576040517f08c379a000000000000000000000000000000000000000000000000000000000815260040180806020018281038252601d8152602001807f73656e646572206973206e6f742074686520746f6b656e206f776e657200000081525060200191505060405180910390fd5b6107dc338383610a7b565b5050565b6000809054906101000a900473ffffffffffffffffffffffffffffffffffffffff1681565b60008060009054906101000a900473ffffffffffffffffffffffffffffffffffffffff1673ffffffffffffffffffffffffffffffffffffffff163373ffffffffffffffffffffffffffffffffffffffff161461086057600080fd5b600a6001541061086f57600080fd5b60016000815480929190600101919050555061089060008060008533610c01565b9050919050565b60008060008060008560028054905011610919576040517f08c379a000000000000000000000000000000000000000000000000000000000815260040180806020018281038252601d8152602001807f74686520746f6b656e496420646f65736e27742065786973742079657400000081525060200191505060405180910390fd5b6002868154811061092657fe5b9060005260206000209060020201600001546002878154811061094557fe5b906000526020600020906002020160010160009054906101000a900467ffffffffffffffff166002888154811061097857fe5b906000526020600020906002020160010160089054906101000a900463ffffffff16600289815481106109a757fe5b9060005260206000209060020201600101600c9054906101000a900463ffffffff1660028a815481106109d657fe5b906000526020600020906002020160010160109054906101000a900461ffff169450945094509450945091939590929450565b60015481565b60008273ffffffffffffffffffffffffffffffffffffffff166003600084815260200190815260200160002060009054906101000a900473ffffffffffffffffffffffffffffffffffffffff1673ffffffffffffffffffffffffffffffffffffffff1614905092915050565b600460008373ffffffffffffffffffffffffffffffffffffffff1673ffffffffffffffffffffffffffffffffffffffff16815260200190815260200160002060008154809291906001019190505550816003600083815260200190815260200160002060006101000a81548173ffffffffffffffffffffffffffffffffffffffff021916908373ffffffffffffffffffffffffffffffffffffffff160217905550600073ffffffffffffffffffffffffffffffffffffffff168373ffffffffffffffffffffffffffffffffffffffff1614610ba157600460008473ffffffffffffffffffffffffffffffffffffffff1673ffffffffffffffffffffffffffffffffffffffff16815260200190815260200160002060008154809291906001900391905055505b808273ffffffffffffffffffffffffffffffffffffffff163373ffffffffffffffffffffffffffffffffffffffff167f5d439cf3a1f6215b41908e5b0b300f39679a3ff1cc010691c1d4ec4d0e2a4ebb60405160405180910390a4505050565b6000610c0b610dcc565b6040518060a001604052808581526020014267ffffffffffffffff1681526020018863ffffffff1681526020018763ffffffff1681526020018661ffff16815250905060006001600283908060018154018082558091505090600182039060005260206000209060020201600090919290919091506000820151816000015560208201518160010160006101000a81548167ffffffffffffffff021916908367ffffffffffffffff16021790555060408201518160010160086101000a81548163ffffffff021916908363ffffffff160217905550606082015181600101600c6101000a81548163ffffffff021916908363ffffffff16021790555060808201518160010160106101000a81548161ffff021916908361ffff16021790555050500390507f4186216a34354e5d8c3edb1d20bed091fc1cbd2fe2525c77cf6d5f379781fb7084828a8a89604051808673ffffffffffffffffffffffffffffffffffffffff1673ffffffffffffffffffffffffffffffffffffffff1681526020018581526020018481526020018381526020018281526020019550505050505060405180910390a1610dbe60008583610a7b565b809250505095945050505050565b6040518060a0016040528060008152602001600067ffffffffffffffff168152602001600063ffffffff168152602001600063ffffffff168152602001600061ffff168152509056fe4e6f206f776e65722c2074686520746f6b656e496420646f65736e2774206578697374207965747175657279207472616e7366657220746f20636f6e74726163742061646472657373a265627a7a72315820cc64204bd53e13b84af7c36421d35a89d6ba1da3f1675d59e331f8589a323bc964736f6c63430005100032",
  "source": "// SPDX-License-Identifier: MIT\r\npragma solidity ^0.5.12;\r\n\r\nimport \"./IERC721.sol\";\r\nimport \"./Ownable.sol\";\r\n\r\n/*\r\nWeek7 day5 we don't implement approval at the moment\r\n*/\r\ncontract Kittycontract is IERC721, Ownable {\r\n\r\n    /**\r\n     * Struct of a kitty at the moment\r\n     */\r\n    struct Kitty{\r\n        // address owner;\r\n\r\n        //Filip code\r\n        uint256 genes;\r\n        uint64 birthTime;\r\n        uint32 mumId;\r\n        uint32 dadId;\r\n        uint16 generation;\r\n    }\r\n\r\n    /***************************************************\r\n     * Variables\r\n     **************************************************/\r\n    //uint256 private _totalSupply;\r\n\r\n    uint256 private constant _CREATION_LIMIT_GEN0 = 10;\r\n    uint256 public _gen0Counter;\r\n    string private constant _tokenName = \"BootcampKitties\";\r\n    string private constant _tokenSymbol= \"BKT\";\r\n\r\n    /***************************************************\r\n     * Mappings and Arrays\r\n     **************************************************/\r\n    Kitty[] private _kitties;\r\n    // mapping(address => uint256[]) private _ownerTokens;\r\n\r\n    //Filip code\r\n    mapping (uint256 => address) public kittyIndexToOwner;\r\n    mapping (address => uint256) ownershipTokenCount;\r\n\r\n\r\n    /***************************************************\r\n     * Events\r\n     **************************************************/\r\n    /**\r\n     * @dev Emitted when `tokenId` token is transfered from `from` to `to`.\r\n     */\r\n    event transferEvent(\r\n        address indexed from,\r\n        address indexed to,\r\n        uint256 indexed tokenId\r\n   );\r\n    /**\r\n     * @dev Emitted when `kittenId` is created\r\n     */\r\n    event birthEvent(\r\n        address owner,\r\n        uint256 kittenId,\r\n        uint256 mumId,\r\n        uint256 dadId,\r\n        uint256 genes\r\n    );\r\n    // /**\r\n    //  * @dev Emitted when `owner` enables `approved` to manage the `tokenId` token.\r\n    //  */\r\n    // event Approval(address indexed owner, address indexed approved, uint256 indexed tokenId);\r\n\r\n\r\n    /***************************************************\r\n     * Functions\r\n     **************************************************/\r\n    /**\r\n     * @dev creates a kitty : generation 0 \r\n     *\r\n     * - uses private function : _createKitty\r\n     */\r\n    function createKittyGen0(uint256 genes) public onlyOwner returns(uint256) {\r\n        require(_gen0Counter < _CREATION_LIMIT_GEN0);\r\n\r\n        _gen0Counter++;\r\n\r\n        //Gen0 have no owners they are own by the contract address(0) (here: the owner)\r\n        return _createKitty(0, 0, 0, genes, msg.sender);\r\n    }\r\n\r\n    /**\r\n     * @dev general function for the creation of new kitten\r\n     */\r\n    function _createKitty(\r\n        uint256 kittyMumId,\r\n        uint256 kittyDadId,\r\n        uint256 kittyGeneration,\r\n        uint256 kittyGenes,\r\n        address kittyOwner\r\n    ) private returns (uint256) {\r\n\r\n        Kitty memory kitty = Kitty({\r\n            // owner: kittyOwner,          //A RETIRER SI CONSERVATION DU FORMAT DU COURS\r\n            genes: kittyGenes,\r\n            birthTime: uint64(now),\r\n            mumId: uint32(kittyMumId),\r\n            dadId: uint32(kittyDadId),\r\n            generation: uint16(kittyGeneration)\r\n        });\r\n\r\n        uint256 newKittenId = _kitties.push(kitty) - 1;\r\n\r\n        emit birthEvent(kittyOwner, newKittenId, kittyMumId, kittyDadId, kittyGenes);\r\n\r\n        _transfer(address(0), kittyOwner, newKittenId);\r\n\r\n        return newKittenId;\r\n    }\r\n\r\n    /**\r\n     * @dev Returns informations about `kittyId`.\r\n     *\r\n     * Requirements:\r\n     *\r\n     * - `kittyId` must exist.\r\n     */\r\n    function getKitty(uint256 kittyId) public view returns(\r\n        uint256 genes,\r\n        uint64 birthTime,\r\n        uint32 mumId,\r\n        uint32 dadId,\r\n        uint16 generation\r\n     ) {\r\n        require(_kitties.length > kittyId, \"the tokenId doesn't exist yet\");\r\n\r\n        return (\r\n            _kitties[kittyId].genes,\r\n            _kitties[kittyId].birthTime,\r\n            _kitties[kittyId].mumId,\r\n            _kitties[kittyId].dadId,\r\n            _kitties[kittyId].generation\r\n        );\r\n    }\r\n\r\n    /**\r\n     * @dev Returns the number of tokens in ``owner``'s account.\r\n     */\r\n    function balanceOf(address owner) external view returns(uint256 balance){\r\n        // return _ownerTokens[owner].length;\r\n\r\n        //Filip code\r\n        return ownershipTokenCount[owner];\r\n    }\r\n\r\n    /**\r\n     * @dev Returns the total number of tokens in circulation.\r\n     */\r\n    function totalSupply() external view returns (uint256 total){\r\n        return _kitties.length;\r\n    }\r\n\r\n    /**\r\n     * @dev Returns the name of the token.\r\n     */\r\n    function name() external view returns (string memory tokenName){\r\n        return _tokenName;\r\n    }\r\n    \r\n    /**\r\n     * @dev Returns the symbol of the token.\r\n     */\r\n    function symbol() external view returns (string memory tokenSymbol){\r\n        return _tokenSymbol;\r\n    }\r\n        \r\n    /**\r\n     * @dev Returns the owner of the `tokenId` token.\r\n     *\r\n     * Requirements:\r\n     *\r\n     * - `tokenId` must exist.\r\n     */\r\n    function ownerOf(uint256 tokenId) external view returns (address owner){\r\n        require(_kitties.length > tokenId, \"No owner, the tokenId doesn't exist yet\");\r\n   \r\n        // return _kitties[tokenId].owner;\r\n        return kittyIndexToOwner[tokenId];\r\n    }\r\n\r\n     /** @dev Transfers `tokenId` token from `msg.sender` to `to`.\r\n     *\r\n     * Requirements:\r\n     *\r\n     * - `to` cannot be the zero address.\r\n     * - `to` can not be the contract address.\r\n     * - `tokenId` token must be owned by `msg.sender`.\r\n     *\r\n     * Emits a {Transfer} event.\r\n     */\r\n    function transfer(address to, uint256 tokenId) external {\r\n        require(to != address(0), \"query transfer to 0 address\");\r\n        require(to != address(this), \"query transfer to contract address\");\r\n        require(_owns(msg.sender, tokenId), \"sender is not the token owner\");\r\n\r\n        _transfer(msg.sender, to, tokenId);\r\n\r\n    }\r\n\r\n    function _transfer(address from, address to, uint256 tokenId) private {\r\n\r\n        ownershipTokenCount[to]++;\r\n\r\n        kittyIndexToOwner[tokenId] = to;\r\n\r\n      if(from != address(0)){\r\n            ownershipTokenCount[from]--;\r\n        }\r\n        // _kitties[tokenId].owner = to;\r\n        // _ownerTokens[to].push(tokenId);\r\n\r\n        // if(from != address(0)){\r\n        //     removeKittyFromOwner(from, tokenId);\r\n        // }\r\n\r\n        emit transferEvent(msg.sender, to, tokenId);\r\n    }   \r\n\r\n    /**\r\n     * @dev helper : check if owner owns this token\r\n     */\r\n     function _owns(address pretender, uint256 tokenId) private view returns(bool isOwner) {\r\n         return (kittyIndexToOwner[tokenId] == pretender);\r\n     }\r\n\r\n    /** \r\n    * @dev helper : delete a tokenId from owner's token array\r\n    **/\r\n    // function removeKittyFromOwner(address owner, uint256 tokenId) private {\r\n    //    uint256[] memory listOfKitties = _ownerTokens[owner];\r\n\r\n    //     bool found = false;\r\n    //     for (uint i = 0; i < listOfKitties.length-1; i++){\r\n    //         if(tokenId == listOfKitties[i]){\r\n    //             found = true;\r\n    //         }\r\n    //         if(found){\r\n    //             listOfKitties[i] = listOfKitties[i+1];\r\n    //         }\r\n    //     }\r\n    //     delete listOfKitties[listOfKitties.length-1];\r\n\r\n    //     _ownerTokens[owner] = listOfKitties;\r\n    //     _ownerTokens[owner].length--;\r\n    // }\r\n\r\n\r\n    // Improved delete function, waiting for Gabba approval \r\n    //  function removeKittyFromOwner(address owner, uint256 tokenId) private {\r\n    //    uint256[] memory listOfKitties = _ownerTokens[owner];\r\n\r\n    //     for (uint i = 0; i < listOfKitties.length-1; i++){\r\n    //         if(tokenId == listOfKitties[i]){\r\n    //             listOfKitties[i] = listOfKitties[listOfKitties.length-1];\r\n    //                break;\r\n    //         }\r\n    //     }\r\n    //     _ownerTokens[owner] = listOfKitties;\r\n    //     _ownerTokens[owner].length--;\r\n    // }\r\n}",
  "sourcePath": "C:\\Xdev\\bootcamp_Iot\\W69_cloneCryptoKitties\\cryptokitties-replica\\contracts\\Kittycontract.sol",
  "compiler": {
    "name": "solc",
    "version": "0.5.16+commit.9c3226ce.Emscripten.clang"
  },
  "schemaVersion": "3.2.0",
  "updatedAt": "2020-08-26T11:26:24.449Z",
  "networkType": "ethereum",
  "devdoc": {
    "methods": {
      "balanceOf(address)": {
        "details": "Returns the number of tokens in ``owner``'s account."
      },
      "createKittyGen0(uint256)": {
        "details": "creates a kitty : generation 0       * - uses private function : _createKitty"
      },
      "getKitty(uint256)": {
        "details": "Returns informations about `kittyId`.      * Requirements:      * - `kittyId` must exist."
      },
      "name()": {
        "details": "Returns the name of the token."
      },
      "ownerOf(uint256)": {
        "details": "Returns the owner of the `tokenId` token.      * Requirements:      * - `tokenId` must exist."
      },
      "symbol()": {
        "details": "Returns the symbol of the token."
      },
      "totalSupply()": {
        "details": "Returns the total number of tokens in circulation."
      },
      "transfer(address,uint256)": {
        "details": "Transfers `tokenId` token from `msg.sender` to `to`.      * Requirements:      * - `to` cannot be the zero address. - `to` can not be the contract address. - `tokenId` token must be owned by `msg.sender`.      * Emits a {Transfer} event."
      }
    }
  },
  "userdoc": {
    "methods": {}
  }
}