{
  "contractName": "KittyContract",
  "abi": [
    {
      "anonymous": false,
      "inputs": [
        {
          "indexed": true,
          "internalType": "address",
          "name": "owner",
          "type": "address"
        },
        {
          "indexed": true,
          "internalType": "address",
          "name": "approved",
          "type": "address"
        },
        {
          "indexed": true,
          "internalType": "uint256",
          "name": "tokenId",
          "type": "uint256"
        }
      ],
      "name": "Approval",
      "type": "event"
    },
    {
      "anonymous": false,
      "inputs": [
        {
          "indexed": true,
          "internalType": "address",
          "name": "owner",
          "type": "address"
        },
        {
          "indexed": true,
          "internalType": "address",
          "name": "operator",
          "type": "address"
        },
        {
          "indexed": false,
          "internalType": "bool",
          "name": "approved",
          "type": "bool"
        }
      ],
      "name": "ApprovalForAll",
      "type": "event"
    },
    {
      "anonymous": false,
      "inputs": [
        {
          "indexed": true,
          "internalType": "address",
          "name": "owner",
          "type": "address"
        },
        {
          "indexed": true,
          "internalType": "uint256",
          "name": "kittenId",
          "type": "uint256"
        },
        {
          "indexed": false,
          "internalType": "uint256",
          "name": "mumId",
          "type": "uint256"
        },
        {
          "indexed": false,
          "internalType": "uint256",
          "name": "dadId",
          "type": "uint256"
        },
        {
          "indexed": false,
          "internalType": "uint256",
          "name": "genes",
          "type": "uint256"
        },
        {
          "indexed": false,
          "internalType": "uint256",
          "name": "birthTime",
          "type": "uint256"
        },
        {
          "indexed": false,
          "internalType": "uint256",
          "name": "generation",
          "type": "uint256"
        }
      ],
      "name": "Birth",
      "type": "event"
    },
    {
      "anonymous": false,
      "inputs": [
        {
          "indexed": true,
          "internalType": "address",
          "name": "from",
          "type": "address"
        },
        {
          "indexed": true,
          "internalType": "address",
          "name": "to",
          "type": "address"
        },
        {
          "indexed": true,
          "internalType": "uint256",
          "name": "tokenId",
          "type": "uint256"
        }
      ],
      "name": "Transfer",
      "type": "event"
    },
    {
      "constant": true,
      "inputs": [],
      "name": "_owner",
      "outputs": [
        {
          "internalType": "address",
          "name": "",
          "type": "address"
        }
      ],
      "payable": false,
      "stateMutability": "view",
      "type": "function"
    },
    {
      "constant": false,
      "inputs": [
        {
          "internalType": "address",
          "name": "to",
          "type": "address"
        },
        {
          "internalType": "uint256",
          "name": "tokenId",
          "type": "uint256"
        }
      ],
      "name": "approve",
      "outputs": [],
      "payable": false,
      "stateMutability": "nonpayable",
      "type": "function"
    },
    {
      "constant": true,
      "inputs": [
        {
          "internalType": "address",
          "name": "owner",
          "type": "address"
        }
      ],
      "name": "balanceOf",
      "outputs": [
        {
          "internalType": "uint256",
          "name": "balance",
          "type": "uint256"
        }
      ],
      "payable": false,
      "stateMutability": "view",
      "type": "function"
    },
    {
      "constant": true,
      "inputs": [
        {
          "internalType": "uint256",
          "name": "tokenId",
          "type": "uint256"
        }
      ],
      "name": "getApproved",
      "outputs": [
        {
          "internalType": "address",
          "name": "",
          "type": "address"
        }
      ],
      "payable": false,
      "stateMutability": "view",
      "type": "function"
    },
    {
      "constant": true,
      "inputs": [
        {
          "internalType": "address",
          "name": "owner",
          "type": "address"
        },
        {
          "internalType": "address",
          "name": "operator",
          "type": "address"
        }
      ],
      "name": "isApprovedForAll",
      "outputs": [
        {
          "internalType": "bool",
          "name": "",
          "type": "bool"
        }
      ],
      "payable": false,
      "stateMutability": "view",
      "type": "function"
    },
    {
      "constant": true,
      "inputs": [],
      "name": "name",
      "outputs": [
        {
          "internalType": "string",
          "name": "tokenName",
          "type": "string"
        }
      ],
      "payable": false,
      "stateMutability": "view",
      "type": "function"
    },
    {
      "constant": true,
      "inputs": [
        {
          "internalType": "uint256",
          "name": "tokenId",
          "type": "uint256"
        }
      ],
      "name": "ownerOf",
      "outputs": [
        {
          "internalType": "address",
          "name": "owner",
          "type": "address"
        }
      ],
      "payable": false,
      "stateMutability": "view",
      "type": "function"
    },
    {
      "constant": false,
      "inputs": [
        {
          "internalType": "address",
          "name": "from",
          "type": "address"
        },
        {
          "internalType": "address",
          "name": "to",
          "type": "address"
        },
        {
          "internalType": "uint256",
          "name": "tokenId",
          "type": "uint256"
        }
      ],
      "name": "safeTransferFrom",
      "outputs": [],
      "payable": false,
      "stateMutability": "nonpayable",
      "type": "function"
    },
    {
      "constant": false,
      "inputs": [
        {
          "internalType": "address",
          "name": "from",
          "type": "address"
        },
        {
          "internalType": "address",
          "name": "to",
          "type": "address"
        },
        {
          "internalType": "uint256",
          "name": "tokenId",
          "type": "uint256"
        },
        {
          "internalType": "bytes",
          "name": "data",
          "type": "bytes"
        }
      ],
      "name": "safeTransferFrom",
      "outputs": [],
      "payable": false,
      "stateMutability": "nonpayable",
      "type": "function"
    },
    {
      "constant": false,
      "inputs": [
        {
          "internalType": "address",
          "name": "operator",
          "type": "address"
        },
        {
          "internalType": "bool",
          "name": "approved",
          "type": "bool"
        }
      ],
      "name": "setApprovalForAll",
      "outputs": [],
      "payable": false,
      "stateMutability": "nonpayable",
      "type": "function"
    },
    {
      "constant": true,
      "inputs": [
        {
          "internalType": "bytes4",
          "name": "interfaceId",
          "type": "bytes4"
        }
      ],
      "name": "supportsInterface",
      "outputs": [
        {
          "internalType": "bool",
          "name": "",
          "type": "bool"
        }
      ],
      "payable": false,
      "stateMutability": "pure",
      "type": "function"
    },
    {
      "constant": true,
      "inputs": [],
      "name": "symbol",
      "outputs": [
        {
          "internalType": "string",
          "name": "tokenSymbol",
          "type": "string"
        }
      ],
      "payable": false,
      "stateMutability": "view",
      "type": "function"
    },
    {
      "constant": true,
      "inputs": [],
      "name": "totalSupply",
      "outputs": [
        {
          "internalType": "uint256",
          "name": "total",
          "type": "uint256"
        }
      ],
      "payable": false,
      "stateMutability": "view",
      "type": "function"
    },
    {
      "constant": false,
      "inputs": [
        {
          "internalType": "address",
          "name": "to",
          "type": "address"
        },
        {
          "internalType": "uint256",
          "name": "tokenId",
          "type": "uint256"
        }
      ],
      "name": "transfer",
      "outputs": [],
      "payable": false,
      "stateMutability": "nonpayable",
      "type": "function"
    },
    {
      "constant": false,
      "inputs": [
        {
          "internalType": "address",
          "name": "from",
          "type": "address"
        },
        {
          "internalType": "address",
          "name": "to",
          "type": "address"
        },
        {
          "internalType": "uint256",
          "name": "tokenId",
          "type": "uint256"
        }
      ],
      "name": "transferFrom",
      "outputs": [],
      "payable": false,
      "stateMutability": "nonpayable",
      "type": "function"
    },
    {
      "constant": false,
      "inputs": [
        {
          "internalType": "uint256",
          "name": "genes",
          "type": "uint256"
        }
      ],
      "name": "createKittyGen0",
      "outputs": [
        {
          "internalType": "uint256",
          "name": "newKittenId",
          "type": "uint256"
        }
      ],
      "payable": false,
      "stateMutability": "nonpayable",
      "type": "function"
    },
    {
      "constant": true,
      "inputs": [
        {
          "internalType": "uint256",
          "name": "kittyId",
          "type": "uint256"
        }
      ],
      "name": "getKitty",
      "outputs": [
        {
          "internalType": "address",
          "name": "owner",
          "type": "address"
        },
        {
          "internalType": "uint256",
          "name": "genes",
          "type": "uint256"
        },
        {
          "internalType": "uint64",
          "name": "birthTime",
          "type": "uint64"
        },
        {
          "internalType": "uint32",
          "name": "mumId",
          "type": "uint32"
        },
        {
          "internalType": "uint32",
          "name": "dadId",
          "type": "uint32"
        },
        {
          "internalType": "uint16",
          "name": "generation",
          "type": "uint16"
        }
      ],
      "payable": false,
      "stateMutability": "view",
      "type": "function"
    },
    {
      "constant": true,
      "inputs": [
        {
          "internalType": "address",
          "name": "owner",
          "type": "address"
        }
      ],
      "name": "getKittiesOf",
      "outputs": [
        {
          "internalType": "uint256[]",
          "name": "",
          "type": "uint256[]"
        }
      ],
      "payable": false,
      "stateMutability": "view",
      "type": "function"
    }
  ],
  "bytecode": "0x6080604052336000806101000a81548173ffffffffffffffffffffffffffffffffffffffff021916908373ffffffffffffffffffffffffffffffffffffffff160217905550611bff806100536000396000f3fe608060405234801561001057600080fd5b50600436106101165760003560e01c806370a08231116100a2578063b2bdfa7b11610071578063b2bdfa7b14610639578063b88d4fde14610683578063d5a776ca14610788578063e985e9c5146107ca578063e98b7f4d1461084657610116565b806370a08231146104c057806395d89b4114610518578063a22cb4651461059b578063a9059cbb146105eb57610116565b806318160ddd116100e957806318160ddd146102bf57806323b872dd146102dd57806342842e0e1461034b57806348242078146103b95780636352211e1461045257610116565b806301ffc9a71461011b57806306fdde0314610180578063081812fc14610203578063095ea7b314610271575b600080fd5b6101666004803603602081101561013157600080fd5b8101908080357bffffffffffffffffffffffffffffffffffffffffffffffffffffffff1916906020019092919050505061090b565b604051808215151515815260200191505060405180910390f35b6101886109ab565b6040518080602001828103825283818151815260200191508051906020019080838360005b838110156101c85780820151818401526020810190506101ad565b50505050905090810190601f1680156101f55780820380516001836020036101000a031916815260200191505b509250505060405180910390f35b61022f6004803603602081101561021957600080fd5b81019080803590602001909291905050506109e8565b604051808273ffffffffffffffffffffffffffffffffffffffff1673ffffffffffffffffffffffffffffffffffffffff16815260200191505060405180910390f35b6102bd6004803603604081101561028757600080fd5b81019080803573ffffffffffffffffffffffffffffffffffffffff16906020019092919080359060200190929190505050610a36565b005b6102c7610ab2565b6040518082815260200191505060405180910390f35b610349600480360360608110156102f357600080fd5b81019080803573ffffffffffffffffffffffffffffffffffffffff169060200190929190803573ffffffffffffffffffffffffffffffffffffffff16906020019092919080359060200190929190505050610abf565b005b6103b76004803603606081101561036157600080fd5b81019080803573ffffffffffffffffffffffffffffffffffffffff169060200190929190803573ffffffffffffffffffffffffffffffffffffffff16906020019092919080359060200190929190505050610ae4565b005b6103fb600480360360208110156103cf57600080fd5b81019080803573ffffffffffffffffffffffffffffffffffffffff169060200190929190505050610b04565b6040518080602001828103825283818151815260200191508051906020019060200280838360005b8381101561043e578082015181840152602081019050610423565b505050509050019250505060405180910390f35b61047e6004803603602081101561046857600080fd5b8101908080359060200190929190505050610c43565b604051808273ffffffffffffffffffffffffffffffffffffffff1673ffffffffffffffffffffffffffffffffffffffff16815260200191505060405180910390f35b610502600480360360208110156104d657600080fd5b81019080803573ffffffffffffffffffffffffffffffffffffffff169060200190929190505050610cdd565b6040518082815260200191505060405180910390f35b610520610d26565b6040518080602001828103825283818151815260200191508051906020019080838360005b83811015610560578082015181840152602081019050610545565b50505050905090810190601f16801561058d5780820380516001836020036101000a031916815260200191505b509250505060405180910390f35b6105e9600480360360408110156105b157600080fd5b81019080803573ffffffffffffffffffffffffffffffffffffffff169060200190929190803515159060200190929190505050610d63565b005b6106376004803603604081101561060157600080fd5b81019080803573ffffffffffffffffffffffffffffffffffffffff16906020019092919080359060200190929190505050610e14565b005b610641610fc7565b604051808273ffffffffffffffffffffffffffffffffffffffff1673ffffffffffffffffffffffffffffffffffffffff16815260200191505060405180910390f35b6107866004803603608081101561069957600080fd5b81019080803573ffffffffffffffffffffffffffffffffffffffff169060200190929190803573ffffffffffffffffffffffffffffffffffffffff169060200190929190803590602001909291908035906020019064010000000081111561070057600080fd5b82018360208201111561071257600080fd5b8035906020019184600183028401116401000000008311171561073457600080fd5b91908080601f016020809104026020016040519081016040528093929190818152602001838380828437600081840152601f19601f820116905080830192505050505050509192919290505050610fec565b005b6107b46004803603602081101561079e57600080fd5b8101908080359060200190929190505050611013565b6040518082815260200191505060405180910390f35b61082c600480360360408110156107e057600080fd5b81019080803573ffffffffffffffffffffffffffffffffffffffff169060200190929190803573ffffffffffffffffffffffffffffffffffffffff1690602001909291905050506110a5565b604051808215151515815260200191505060405180910390f35b6108726004803603602081101561085c57600080fd5b8101908080359060200190929190505050611139565b604051808773ffffffffffffffffffffffffffffffffffffffff1673ffffffffffffffffffffffffffffffffffffffff1681526020018681526020018567ffffffffffffffff1667ffffffffffffffff1681526020018463ffffffff1663ffffffff1681526020018363ffffffff1663ffffffff1681526020018261ffff1661ffff168152602001965050505050505060405180910390f35b60006380ac58cd60e01b7bffffffffffffffffffffffffffffffffffffffffffffffffffffffff1916827bffffffffffffffffffffffffffffffffffffffffffffffffffffffff191614806109a457506301ffc9a760e01b7bffffffffffffffffffffffffffffffffffffffffffffffffffffffff1916827bffffffffffffffffffffffffffffffffffffffffffffffffffffffff1916145b9050919050565b60606040518060400160405280600f81526020017f426f6f7463616d704b6974746965730000000000000000000000000000000000815250905090565b600060028054905082106109fb57600080fd5b6005600083815260200190815260200160002060009054906101000a900473ffffffffffffffffffffffffffffffffffffffff169050919050565b610a4033826112e2565b610a4957600080fd5b610a53818361134e565b808273ffffffffffffffffffffffffffffffffffffffff163373ffffffffffffffffffffffffffffffffffffffff167f8c5be1e5ebec7d5bd14f71427d1e84f3dd0314c0f7b2291e5b200ac8c7c3b92560405160405180910390a45050565b6000600280549050905090565b610acb338484846113a4565b610ad457600080fd5b610adf83838361145f565b505050565b610aff83838360405180602001604052806000815250610fec565b505050565b60606000600460008473ffffffffffffffffffffffffffffffffffffffff1673ffffffffffffffffffffffffffffffffffffffff168152602001908152602001600020549050606081604051908082528060200260200182016040528015610b7b5781602001602082028038833980820191505090505b509050600080905060008090505b60028054905081108015610b9c57508382105b15610c37578573ffffffffffffffffffffffffffffffffffffffff166003600083815260200190815260200160002060009054906101000a900473ffffffffffffffffffffffffffffffffffffffff1673ffffffffffffffffffffffffffffffffffffffff161415610c2a5780838381518110610c1557fe5b60200260200101818152505081806001019250505b8080600101915050610b89565b50819350505050919050565b60008160028054905011610ca2576040517f08c379a0000000000000000000000000000000000000000000000000000000008152600401808060200182810382526027815260200180611b826027913960400191505060405180910390fd5b6003600083815260200190815260200160002060009054906101000a900473ffffffffffffffffffffffffffffffffffffffff169050919050565b6000600460008373ffffffffffffffffffffffffffffffffffffffff1673ffffffffffffffffffffffffffffffffffffffff168152602001908152602001600020549050919050565b60606040518060400160405280600381526020017f424b540000000000000000000000000000000000000000000000000000000000815250905090565b3373ffffffffffffffffffffffffffffffffffffffff168273ffffffffffffffffffffffffffffffffffffffff161415610d9c57600080fd5b610da733838361161b565b8173ffffffffffffffffffffffffffffffffffffffff163373ffffffffffffffffffffffffffffffffffffffff167f17307eab39ab6107e8899845ad3d59bd9653f200f220920489ca2b5937696c3183604051808215151515815260200191505060405180910390a35050565b600073ffffffffffffffffffffffffffffffffffffffff168273ffffffffffffffffffffffffffffffffffffffff161415610eb7576040517f08c379a000000000000000000000000000000000000000000000000000000000815260040180806020018281038252601b8152602001807f7175657279207472616e7366657220746f20302061646472657373000000000081525060200191505060405180910390fd5b3073ffffffffffffffffffffffffffffffffffffffff168273ffffffffffffffffffffffffffffffffffffffff161415610f3c576040517f08c379a0000000000000000000000000000000000000000000000000000000008152600401808060200182810382526022815260200180611ba96022913960400191505060405180910390fd5b610f4633826112e2565b610fb8576040517f08c379a000000000000000000000000000000000000000000000000000000000815260040180806020018281038252601d8152602001807f73656e646572206973206e6f742074686520746f6b656e206f776e657200000081525060200191505060405180910390fd5b610fc333838361145f565b5050565b6000809054906101000a900473ffffffffffffffffffffffffffffffffffffffff1681565b610ff8338585856113a4565b61100157600080fd5b61100d848484846116b4565b50505050565b60008060009054906101000a900473ffffffffffffffffffffffffffffffffffffffff1673ffffffffffffffffffffffffffffffffffffffff163373ffffffffffffffffffffffffffffffffffffffff161461106e57600080fd5b600a6001541061107d57600080fd5b60016000815480929190600101919050555061109e600080600085336116da565b9050919050565b6000600660008473ffffffffffffffffffffffffffffffffffffffff1673ffffffffffffffffffffffffffffffffffffffff16815260200190815260200160002060008373ffffffffffffffffffffffffffffffffffffffff1673ffffffffffffffffffffffffffffffffffffffff16815260200190815260200160002060009054906101000a900460ff16905092915050565b60008060008060008086600280549050116111bc576040517f08c379a000000000000000000000000000000000000000000000000000000000815260040180806020018281038252601d8152602001807f74686520746f6b656e496420646f65736e27742065786973742079657400000081525060200191505060405180910390fd5b6003600088815260200190815260200160002060009054906101000a900473ffffffffffffffffffffffffffffffffffffffff169550600287815481106111ff57fe5b90600052602060002090600202016000015494506002878154811061122057fe5b906000526020600020906002020160010160009054906101000a900467ffffffffffffffff1693506002878154811061125557fe5b906000526020600020906002020160010160089054906101000a900463ffffffff1692506002878154811061128657fe5b9060005260206000209060020201600101600c9054906101000a900463ffffffff169150600287815481106112b757fe5b906000526020600020906002020160010160109054906101000a900461ffff16905091939550919395565b60008273ffffffffffffffffffffffffffffffffffffffff166003600084815260200190815260200160002060009054906101000a900473ffffffffffffffffffffffffffffffffffffffff1673ffffffffffffffffffffffffffffffffffffffff1614905092915050565b806005600084815260200190815260200160002060006101000a81548173ffffffffffffffffffffffffffffffffffffffff021916908373ffffffffffffffffffffffffffffffffffffffff1602179055505050565b600060028054905082106113b757600080fd5b600073ffffffffffffffffffffffffffffffffffffffff168373ffffffffffffffffffffffffffffffffffffffff1614156113f157600080fd5b6113fb84836112e2565b61140457600080fd5b8373ffffffffffffffffffffffffffffffffffffffff168573ffffffffffffffffffffffffffffffffffffffff161480611444575061144333836118a0565b5b80611455575061145484336110a5565b5b9050949350505050565b600460008373ffffffffffffffffffffffffffffffffffffffff1673ffffffffffffffffffffffffffffffffffffffff16815260200190815260200160002060008154809291906001019190505550816003600083815260200190815260200160002060006101000a81548173ffffffffffffffffffffffffffffffffffffffff021916908373ffffffffffffffffffffffffffffffffffffffff160217905550600073ffffffffffffffffffffffffffffffffffffffff168373ffffffffffffffffffffffffffffffffffffffff16146115bb57600460008473ffffffffffffffffffffffffffffffffffffffff1673ffffffffffffffffffffffffffffffffffffffff16815260200190815260200160002060008154809291906001900391905055506005600082815260200190815260200160002060006101000a81549073ffffffffffffffffffffffffffffffffffffffff02191690555b808273ffffffffffffffffffffffffffffffffffffffff163373ffffffffffffffffffffffffffffffffffffffff167fddf252ad1be2c89b69c2b068fc378daa952ba7f163c4a11628f55a4df523b3ef60405160405180910390a4505050565b80600660008573ffffffffffffffffffffffffffffffffffffffff1673ffffffffffffffffffffffffffffffffffffffff16815260200190815260200160002060008473ffffffffffffffffffffffffffffffffffffffff1673ffffffffffffffffffffffffffffffffffffffff16815260200190815260200160002060006101000a81548160ff021916908315150217905550505050565b6116c08484848461190c565b6116c957600080fd5b6116d484848461145f565b50505050565b6000804290506116e8611b09565b6040518060a001604052808681526020018367ffffffffffffffff1681526020018963ffffffff1681526020018863ffffffff1681526020018761ffff16815250905060006001600283908060018154018082558091505090600182039060005260206000209060020201600090919290919091506000820151816000015560208201518160010160006101000a81548167ffffffffffffffff021916908367ffffffffffffffff16021790555060408201518160010160086101000a81548163ffffffff021916908363ffffffff160217905550606082015181600101600c6101000a81548163ffffffff021916908363ffffffff16021790555060808201518160010160106101000a81548161ffff021916908361ffff1602179055505050039050808573ffffffffffffffffffffffffffffffffffffffff167f7dcf8cf9480f02e61cf7d356dc33a677317dbee76b7ac90ac9a521f134e27ed48b8b8a888d604051808681526020018581526020018481526020018367ffffffffffffffff1681526020018281526020019550505050505060405180910390a36118916000868361145f565b80935050505095945050505050565b60008273ffffffffffffffffffffffffffffffffffffffff166005600084815260200190815260200160002060009054906101000a900473ffffffffffffffffffffffffffffffffffffffff1673ffffffffffffffffffffffffffffffffffffffff1614905092915050565b600061191784611af0565b6119245760019050611ae8565b60008473ffffffffffffffffffffffffffffffffffffffff1663150b7a02338887876040518563ffffffff1660e01b8152600401808573ffffffffffffffffffffffffffffffffffffffff1673ffffffffffffffffffffffffffffffffffffffff1681526020018473ffffffffffffffffffffffffffffffffffffffff1673ffffffffffffffffffffffffffffffffffffffff16815260200183815260200180602001828103825283818151815260200191508051906020019080838360005b838110156119ff5780820151818401526020810190506119e4565b50505050905090810190601f168015611a2c5780820380516001836020036101000a031916815260200191505b5095505050505050602060405180830381600087803b158015611a4e57600080fd5b505af1158015611a62573d6000803e3d6000fd5b505050506040513d6020811015611a7857600080fd5b810190808051906020019092919050505090506040518080611b53602f9139602f01905060405180910390207bffffffffffffffffffffffffffffffffffffffffffffffffffffffff1916817bffffffffffffffffffffffffffffffffffffffffffffffffffffffff1916149150505b949350505050565b600080823b905060008163ffffffff1611915050919050565b6040518060a0016040528060008152602001600067ffffffffffffffff168152602001600063ffffffff168152602001600063ffffffff168152602001600061ffff168152509056fe6f6e455243373231526563656976656428616464726573732c616464726573732c75696e743235362c6279746573294e6f206f776e65722c2074686520746f6b656e496420646f65736e2774206578697374207965747175657279207472616e7366657220746f20636f6e74726163742061646472657373a265627a7a72315820a0e37c6a94be08a1bf5fbb80e5a6307c1c9b79082d5de7c97fbf98883f99a28f64736f6c634300050c0032",
  "source": "// SPDX-License-Identifier: MIT\r\npragma solidity ^0.5.12;\r\n\r\nimport \"./KittyToken.sol\";\r\n\r\n/*\r\nWeek7 day5 we don't implement approval at the moment\r\n*/\r\ncontract KittyContract is KittyToken {\r\n    /***************************************************\r\n    Events\r\n     **************************************************/\r\n    /**\r\n    @dev Emitted when `kittenId` is created\r\n     */\r\n    event Birth(\r\n        address indexed owner,\r\n        uint256 indexed kittenId,\r\n        uint256 mumId,\r\n        uint256 dadId,\r\n        uint256 genes,\r\n        uint256 birthTime,\r\n        uint256 generation\r\n    );\r\n\r\n    /***************************************************\r\n    Functions\r\n     **************************************************/\r\n    /**\r\n    @dev creates a kitty : generation 0 \r\n    - uses private function : _createKitty\r\n     */\r\n    function createKittyGen0(uint256 genes)\r\n        public\r\n        onlyOwner\r\n        returns (uint256 newKittenId)\r\n    {\r\n        require(_gen0Counter < _CREATION_LIMIT_GEN0);\r\n\r\n        _gen0Counter++;\r\n\r\n        //Gen0 have no owners they are own by the contract address(this)\r\n        return _createKitty(0, 0, 0, genes, msg.sender);\r\n    }\r\n\r\n    /**\r\n    @dev general function for the creation of new kitten\r\n     */\r\n    function _createKitty(\r\n        uint256 kittyMumId,\r\n        uint256 kittyDadId,\r\n        uint256 kittyGeneration,\r\n        uint256 kittyGenes,\r\n        address kittyOwner\r\n    ) private returns (uint256) {\r\n        uint64 date = uint64(now);\r\n        Kitty memory kitty = Kitty({\r\n            genes: kittyGenes,\r\n            birthTime: date,\r\n            mumId: uint32(kittyMumId),\r\n            dadId: uint32(kittyDadId),\r\n            generation: uint16(kittyGeneration)\r\n        });\r\n\r\n        uint256 newKittenId = _kitties.push(kitty) - 1;\r\n\r\n        emit Birth(\r\n            kittyOwner,\r\n            newKittenId,\r\n            kittyMumId,\r\n            kittyDadId,\r\n            kittyGenes,\r\n            date,\r\n            kittyGeneration\r\n        );\r\n\r\n        _transfer(address(0), kittyOwner, newKittenId);\r\n\r\n        return newKittenId;\r\n    }\r\n\r\n    /**\r\n    @dev Returns informations about `kittyId`. \r\n    Requirements: \r\n    - `kittyId` must exist.\r\n     */\r\n    function getKitty(uint256 kittyId)\r\n        public\r\n        view\r\n        returns (\r\n            address owner,\r\n            uint256 genes,\r\n            uint64 birthTime,\r\n            uint32 mumId,\r\n            uint32 dadId,\r\n            uint16 generation\r\n        )\r\n    {\r\n        require(_kitties.length > kittyId, \"the tokenId doesn't exist yet\");\r\n\r\n        owner = _kittyIndexToOwner[kittyId]; //virer\r\n        genes = _kitties[kittyId].genes;\r\n        birthTime = _kitties[kittyId].birthTime;\r\n        mumId = _kitties[kittyId].mumId;\r\n        dadId = _kitties[kittyId].dadId;\r\n        generation = _kitties[kittyId].generation;\r\n    }\r\n\r\n    /**\r\n    @dev Returns the list of tokenId of owner\r\n     */\r\n    function getKittiesOf(address owner)\r\n        external\r\n        view\r\n        returns (uint256[] memory)\r\n    {\r\n        uint256 totalOfOwner = _ownershipTokenCount[owner];\r\n        uint256[] memory listOfKitties = new uint256[](totalOfOwner);\r\n        uint256 counter = 0;\r\n\r\n        for (\r\n            uint256 i = 0;\r\n            i < _kitties.length && counter < totalOfOwner;\r\n            i++\r\n        ) {\r\n            if (_kittyIndexToOwner[i] == owner) {\r\n                listOfKitties[counter] = i;\r\n                counter++;\r\n            }\r\n        }\r\n        return listOfKitties;\r\n    }\r\n\r\n\r\n\r\n\r\n\r\n\r\n\r\n   \r\n\r\n\r\n\r\n\r\n\r\n\r\n////////FACTORISER LES REQUIRE SI REUTILSIE\r\n\r\n///ORDRE DES FONCTIONS PRIVE EN DERNIER\r\n\r\n\r\n/// CASSER LE CONTRAT EN FAMILLE\r\n\r\n\r\n\r\n\r\n\r\n   \r\n\r\n\r\n}\r\n",
  "sourcePath": "C:\\Xdev\\bootcamp_Iot\\W69_cloneCryptoKitties\\cryptokitties-replica\\contracts\\KittyContract.sol",
  "compiler": {
    "name": "solc",
    "version": "0.5.12+commit.7709ece9.Emscripten.clang"
  },
  "schemaVersion": "3.2.0",
  "updatedAt": "2020-09-09T19:20:42.744Z",
  "devdoc": {
    "methods": {
      "approve(address,uint256)": {
        "details": "The zero address indicates there is no approved address. Throws unless `msg.sender` is the current NFT owner, or an authorized operator of the current owner.",
        "params": {
          "to": "The new approved NFT controller",
          "tokenId": "The NFT to approve"
        }
      },
      "balanceOf(address)": {
        "details": "Returns the number of tokens in ``owner``'s account."
      },
      "createKittyGen0(uint256)": {
        "details": "creates a kitty : generation 0  - uses private function : _createKitty"
      },
      "getApproved(uint256)": {
        "details": "Throws if `tokenId` is not a valid NFT.",
        "params": {
          "tokenId": "The NFT to find the approved address for"
        },
        "return": "The approved address for this NFT, or the zero address if there is none"
      },
      "getKittiesOf(address)": {
        "details": "Returns the list of tokenId of owner"
      },
      "getKitty(uint256)": {
        "details": "Returns informations about `kittyId`.  Requirements:  - `kittyId` must exist."
      },
      "isApprovedForAll(address,address)": {
        "params": {
          "operator": "The address that acts on behalf of the owner",
          "owner": "The address that owns the NFTs"
        },
        "return": "True if `operator` is an approved operator for `_owner`, false otherwise"
      },
      "name()": {
        "details": "Returns the name of the token."
      },
      "ownerOf(uint256)": {
        "details": "Returns the owner of the `tokenId` token.  Requirements:  - `tokenId` must exist."
      },
      "safeTransferFrom(address,address,uint256)": {
        "details": "This works identically to the other function with an extra data parameter, except this function just sets data to \"\".",
        "params": {
          "from": "The current owner of the NFT",
          "to": "The new owner",
          "tokenId": "The NFT to transfer"
        }
      },
      "safeTransferFrom(address,address,uint256,bytes)": {
        "details": "Throws unless `msg.sender` is the current owner, an authorized operator, or the approved address for this NFT. Throws if `from` is not the current owner. Throws if `to` is the zero address. Throws if `tokenId` is not a valid NFT. When transfer is complete, this function checks if `to` is a smart contract (code size > 0). If so, it calls `onERC721Received` on `to` and throws if the return value is not `bytes4(keccak256(\"onERC721Received(address,address,uint256,bytes)\"))`.",
        "params": {
          "data": "Additional data with no specified format, sent in call to `to`",
          "from": "The current owner of the NFT",
          "to": "The new owner",
          "tokenId": "The NFT to transfer"
        }
      },
      "setApprovalForAll(address,bool)": {
        "details": "Emits the ApprovalForAll event. The contract MUST allow multiple operators per owner.",
        "params": {
          "approved": "True if the operator is approved, false to revoke approval",
          "operator": "Address to add to the set of authorized operators"
        }
      },
      "symbol()": {
        "details": "Returns the symbol of the token."
      },
      "totalSupply()": {
        "details": "Returns the total number of tokens in circulation."
      },
      "transfer(address,uint256)": {
        "details": "Transfers `tokenId` token from `msg.sender` to `to`. - call _transfer(from, to , tokenId) Requirements: - `to` cannot be the zero address. - `to` can not be the contract address. - `tokenId` token must be owned by `msg.sender`."
      },
      "transferFrom(address,address,uint256)": {
        "details": "Throws unless `msg.sender` is the current owner, an authorized operator, or the approved address for this NFT. Throws if `from` is not the current owner. Throws if `to` is the zero address. Throws if `tokenId` is not a valid NFT.",
        "params": {
          "from": "The current owner of the NFT",
          "to": "The new owner",
          "tokenId": "The NFT to transfer"
        }
      }
    }
  },
  "userdoc": {
    "methods": {
      "approve(address,uint256)": {
        "notice": "Change or reaffirm the approved address for an NFT"
      },
      "getApproved(uint256)": {
        "notice": "Get the approved address for a single NFT"
      },
      "isApprovedForAll(address,address)": {
        "notice": "Query if an address is an authorized operator for another address"
      },
      "safeTransferFrom(address,address,uint256)": {
        "notice": "Transfers the ownership of an NFT from one address to another address"
      },
      "safeTransferFrom(address,address,uint256,bytes)": {
        "notice": "Transfers the ownership of an NFT from one address to another address"
      },
      "setApprovalForAll(address,bool)": {
        "notice": "Enable or disable approval for a third party (\"operator\") to manage all of `msg.sender`'s assets"
      },
      "transferFrom(address,address,uint256)": {
        "notice": "Transfer ownership of an NFT -- THE CALLER IS RESPONSIBLE TO CONFIRM THAT `to` IS CAPABLE OF RECEIVING NFTS OR ELSE THEY MAY BE PERMANENTLY LOST"
      }
    }
  }
}