{
  "contractName": "Kittycontract",
  "abi": [
    {
      "anonymous": false,
      "inputs": [
        {
          "indexed": true,
          "internalType": "address",
          "name": "owner",
          "type": "address"
        },
        {
          "indexed": true,
          "internalType": "address",
          "name": "approved",
          "type": "address"
        },
        {
          "indexed": true,
          "internalType": "uint256",
          "name": "tokenId",
          "type": "uint256"
        }
      ],
      "name": "Approval",
      "type": "event"
    },
    {
      "anonymous": false,
      "inputs": [
        {
          "indexed": true,
          "internalType": "address",
          "name": "from",
          "type": "address"
        },
        {
          "indexed": true,
          "internalType": "address",
          "name": "to",
          "type": "address"
        },
        {
          "indexed": true,
          "internalType": "uint256",
          "name": "tokenId",
          "type": "uint256"
        }
      ],
      "name": "Transfer",
      "type": "event"
    },
    {
      "constant": true,
      "inputs": [
        {
          "internalType": "address",
          "name": "owner",
          "type": "address"
        }
      ],
      "name": "balanceOf",
      "outputs": [
        {
          "internalType": "uint256",
          "name": "balance",
          "type": "uint256"
        }
      ],
      "payable": false,
      "stateMutability": "view",
      "type": "function"
    },
    {
      "constant": true,
      "inputs": [],
      "name": "totalSupply",
      "outputs": [
        {
          "internalType": "uint256",
          "name": "total",
          "type": "uint256"
        }
      ],
      "payable": false,
      "stateMutability": "view",
      "type": "function"
    },
    {
      "constant": true,
      "inputs": [],
      "name": "name",
      "outputs": [
        {
          "internalType": "string",
          "name": "tokenName",
          "type": "string"
        }
      ],
      "payable": false,
      "stateMutability": "view",
      "type": "function"
    },
    {
      "constant": true,
      "inputs": [],
      "name": "symbol",
      "outputs": [
        {
          "internalType": "string",
          "name": "tokenSymbol",
          "type": "string"
        }
      ],
      "payable": false,
      "stateMutability": "view",
      "type": "function"
    },
    {
      "constant": true,
      "inputs": [
        {
          "internalType": "uint256",
          "name": "tokenId",
          "type": "uint256"
        }
      ],
      "name": "ownerOf",
      "outputs": [
        {
          "internalType": "address",
          "name": "owner",
          "type": "address"
        }
      ],
      "payable": false,
      "stateMutability": "view",
      "type": "function"
    },
    {
      "constant": false,
      "inputs": [
        {
          "internalType": "address",
          "name": "to",
          "type": "address"
        },
        {
          "internalType": "uint256",
          "name": "tokenId",
          "type": "uint256"
        }
      ],
      "name": "transfer",
      "outputs": [],
      "payable": false,
      "stateMutability": "nonpayable",
      "type": "function"
    }
  ],
  "bytecode": "0x60806040526040518060400160405280600f81526020017f426f6f7463616d704b69747469657300000000000000000000000000000000008152506001908051906020019061004f9291906100ae565b506040518060400160405280600381526020017f424b5400000000000000000000000000000000000000000000000000000000008152506002908051906020019061009b9291906100ae565b503480156100a857600080fd5b50610153565b828054600181600116156101000203166002900490600052602060002090601f016020900481019282601f106100ef57805160ff191683800117855561011d565b8280016001018555821561011d579182015b8281111561011c578251825591602001919060010190610101565b5b50905061012a919061012e565b5090565b61015091905b8082111561014c576000816000905550600101610134565b5090565b90565b610b03806101626000396000f3fe608060405234801561001057600080fd5b50600436106100625760003560e01c806306fdde031461006757806318160ddd146100ea5780636352211e1461010857806370a082311461017657806395d89b41146101ce578063a9059cbb14610251575b600080fd5b61006f61029f565b6040518080602001828103825283818151815260200191508051906020019080838360005b838110156100af578082015181840152602081019050610094565b50505050905090810190601f1680156100dc5780820380516001836020036101000a031916815260200191505b509250505060405180910390f35b6100f2610341565b6040518082815260200191505060405180910390f35b6101346004803603602081101561011e57600080fd5b810190808035906020019092919050505061034a565b604051808273ffffffffffffffffffffffffffffffffffffffff1673ffffffffffffffffffffffffffffffffffffffff16815260200191505060405180910390f35b6101b86004803603602081101561018c57600080fd5b81019080803573ffffffffffffffffffffffffffffffffffffffff1690602001909291905050506103ef565b6040518082815260200191505060405180910390f35b6101d661043b565b6040518080602001828103825283818151815260200191508051906020019080838360005b838110156102165780820151818401526020810190506101fb565b50505050905090810190601f1680156102435780820380516001836020036101000a031916815260200191505b509250505060405180910390f35b61029d6004803603604081101561026757600080fd5b81019080803573ffffffffffffffffffffffffffffffffffffffff169060200190929190803590602001909291905050506104dd565b005b606060018054600181600116156101000203166002900480601f0160208091040260200160405190810160405280929190818152602001828054600181600116156101000203166002900480156103375780601f1061030c57610100808354040283529160200191610337565b820191906000526020600020905b81548152906001019060200180831161031a57829003601f168201915b5050505050905090565b60008054905090565b600081600380549050116103a9576040517f08c379a0000000000000000000000000000000000000000000000000000000008152600401808060200182810382526027815260200180610a866027913960400191505060405180910390fd5b600382815481106103b657fe5b906000526020600020906002020160010160009054906101000a900473ffffffffffffffffffffffffffffffffffffffff169050919050565b6000600460008373ffffffffffffffffffffffffffffffffffffffff1673ffffffffffffffffffffffffffffffffffffffff168152602001908152602001600020805490509050919050565b606060028054600181600116156101000203166002900480601f0160208091040260200160405190810160405280929190818152602001828054600181600116156101000203166002900480156104d35780601f106104a8576101008083540402835291602001916104d3565b820191906000526020600020905b8154815290600101906020018083116104b657829003601f168201915b5050505050905090565b600073ffffffffffffffffffffffffffffffffffffffff168273ffffffffffffffffffffffffffffffffffffffff161415610580576040517f08c379a000000000000000000000000000000000000000000000000000000000815260040180806020018281038252601b8152602001807f7175657279207472616e7366657220746f20302061646472657373000000000081525060200191505060405180910390fd5b3073ffffffffffffffffffffffffffffffffffffffff168273ffffffffffffffffffffffffffffffffffffffff161415610605576040517f08c379a0000000000000000000000000000000000000000000000000000000008152600401808060200182810382526022815260200180610aad6022913960400191505060405180910390fd5b3373ffffffffffffffffffffffffffffffffffffffff166003828154811061062957fe5b906000526020600020906002020160010160009054906101000a900473ffffffffffffffffffffffffffffffffffffffff1673ffffffffffffffffffffffffffffffffffffffff16146106e4576040517f08c379a000000000000000000000000000000000000000000000000000000000815260040180806020018281038252601d8152602001807f73656e646572206973206e6f742074686520746f6b656e206f776e657200000081525060200191505060405180910390fd5b6106ed81610812565b81600382815481106106fb57fe5b906000526020600020906002020160010160006101000a81548173ffffffffffffffffffffffffffffffffffffffff021916908373ffffffffffffffffffffffffffffffffffffffff160217905550600460008373ffffffffffffffffffffffffffffffffffffffff1673ffffffffffffffffffffffffffffffffffffffff168152602001908152602001600020819080600181540180825580915050906001820390600052602060002001600090919290919091505550808273ffffffffffffffffffffffffffffffffffffffff163373ffffffffffffffffffffffffffffffffffffffff167fddf252ad1be2c89b69c2b068fc378daa952ba7f163c4a11628f55a4df523b3ef60405160405180910390a45050565b6060600460003373ffffffffffffffffffffffffffffffffffffffff1673ffffffffffffffffffffffffffffffffffffffff16815260200190815260200160002080548060200260200160405190810160405280929190818152602001828054801561089d57602002820191906000526020600020905b815481526020019060010190808311610889575b50505050509050600080905060008090505b600183510381101561091e578281815181106108c757fe5b60200260200101518414156108db57600191505b8115610911578260018201815181106108f057fe5b602002602001015183828151811061090457fe5b6020026020010181815250505b80806001019150506108af565b508160018351038151811061092f57fe5b60200260200101600081525081600460003373ffffffffffffffffffffffffffffffffffffffff1673ffffffffffffffffffffffffffffffffffffffff168152602001908152602001600020908051906020019061098e9291906109e7565b50600460003373ffffffffffffffffffffffffffffffffffffffff1673ffffffffffffffffffffffffffffffffffffffff1681526020019081526020016000208054809190600190036109e19190610a34565b50505050565b828054828255906000526020600020908101928215610a23579160200282015b82811115610a22578251825591602001919060010190610a07565b5b509050610a309190610a60565b5090565b815481835581811115610a5b57818360005260206000209182019101610a5a9190610a60565b5b505050565b610a8291905b80821115610a7e576000816000905550600101610a66565b5090565b9056fe4e6f206f776e65722c2074686520746f6b656e496420646f65736e2774206578697374207965747175657279207472616e7366657220746f20636f6e74726163742061646472657373a265627a7a7231582090b925fe59e9989562e332c7024a7ab591f53788f91c6b45bd921e407711d5ae64736f6c63430005100032",
  "source": "// SPDX-License-Identifier: MIT\r\npragma solidity ^0.5.12;\r\n\r\nimport \"./IERC721.sol\";\r\n\r\n/*\r\nWeek7 day5 we don't implement approval at the moment\r\n*/\r\ncontract Kittycontract is IERC721 {\r\n\r\n    /**\r\n     * Struct of a kitty at the moment\r\n     */\r\n    struct Kitty{\r\n        uint256 genes;\r\n        address owner;\r\n    }\r\n\r\n    /***************************************************\r\n     * Variables\r\n     **************************************************/\r\n    uint256 private _totalSupply;\r\n\r\n    string private _tokenName = \"BootcampKitties\";\r\n    string private _tokenSymbol= \"BKT\";\r\n\r\n    /***************************************************\r\n     * Mappings and Arrays\r\n     **************************************************/\r\n    Kitty[] _kitties;\r\n    mapping(address => uint256[]) _ownerTokens;\r\n\r\n\r\n    /***************************************************\r\n     * Events\r\n     **************************************************/\r\n    /**\r\n     * @dev Emitted when `tokenId` token is transfered from `from` to `to`.\r\n     */\r\n    event Transfer(address indexed from, address indexed to, uint256 indexed tokenId);\r\n\r\n    // /**\r\n    //  * @dev Emitted when `owner` enables `approved` to manage the `tokenId` token.\r\n    //  */\r\n    // event Approval(address indexed owner, address indexed approved, uint256 indexed tokenId);\r\n\r\n\r\n    /***************************************************\r\n     * Functions\r\n     **************************************************/\r\n    /**\r\n     * @dev Returns the number of tokens in ``owner``'s account.\r\n     */\r\n    function balanceOf(address owner) external view returns(uint256 balance){\r\n        return _ownerTokens[owner].length;\r\n    }\r\n\r\n    /**\r\n     * @dev Returns the total number of tokens in circulation.\r\n     */\r\n    function totalSupply() external view returns (uint256 total){\r\n        return _totalSupply;\r\n    }\r\n\r\n    /**\r\n     * @dev Returns the name of the token.\r\n     */\r\n    function name() external view returns (string memory tokenName){\r\n        return _tokenName;\r\n    }\r\n    \r\n    /**\r\n     * @dev Returns the symbol of the token.\r\n     */\r\n    function symbol() external view returns (string memory tokenSymbol){\r\n        return _tokenSymbol;\r\n    }\r\n        \r\n    /**\r\n     * @dev Returns the owner of the `tokenId` token.\r\n     *\r\n     * Requirements:\r\n     *\r\n     * - `tokenId` must exist.\r\n     */\r\n    function ownerOf(uint256 tokenId) external view returns (address owner){\r\n        require(_kitties.length > tokenId, \"No owner, the tokenId doesn't exist yet\");\r\n   \r\n        return _kitties[tokenId].owner;\r\n    }\r\n\r\n     /** @dev Transfers `tokenId` token from `msg.sender` to `to`.\r\n     *\r\n     * Requirements:\r\n     *\r\n     * - `to` cannot be the zero address.\r\n     * - `to` can not be the contract address.\r\n     * - `tokenId` token must be owned by `msg.sender`.\r\n     *\r\n     * Emits a {Transfer} event.\r\n     */\r\n    function transfer(address to, uint256 tokenId) external {\r\n        require(to != address(0), \"query transfer to 0 address\");\r\n        require(to != address(this), \"query transfer to contract address\");\r\n        require(_kitties[tokenId].owner == msg.sender, \"sender is not the token owner\");\r\n\r\n        removeKittyFromOwner(tokenId);\r\n        _kitties[tokenId].owner = to;\r\n        _ownerTokens[to].push(tokenId);\r\n\r\n        emit Transfer(msg.sender, to, tokenId);\r\n    }\r\n\r\n   /** \r\n   * @dev helper : delete a tokenId from owner's token array\r\n   **/\r\n   function removeKittyFromOwner(uint256 tokenId) private {\r\n       uint256[] memory listOfKitties = _ownerTokens[msg.sender];\r\n\r\n        bool found = false;\r\n        for (uint i = 0; i < listOfKitties.length-1; i++){\r\n            if(tokenId == listOfKitties[i]){\r\n                found = true;\r\n            }\r\n            if(found){\r\n                listOfKitties[i] = listOfKitties[i+1];\r\n            }\r\n        }\r\n        delete listOfKitties[listOfKitties.length-1];\r\n\r\n        _ownerTokens[msg.sender] = listOfKitties;\r\n        _ownerTokens[msg.sender].length--;\r\n    }\r\n}",
  "sourcePath": "C:\\Xdev\\bootcamp_Iot\\W69_cloneCryptoKitties\\cryptokitties-replica\\contracts\\Kittycontract.sol",
  "compiler": {
    "name": "solc",
    "version": "0.5.16+commit.9c3226ce.Emscripten.clang"
  },
  "schemaVersion": "3.2.0",
  "updatedAt": "2020-08-24T01:16:46.737Z",
  "devdoc": {
    "methods": {
      "balanceOf(address)": {
        "details": "Returns the number of tokens in ``owner``'s account."
      },
      "name()": {
        "details": "Returns the name of the token."
      },
      "ownerOf(uint256)": {
        "details": "Returns the owner of the `tokenId` token.      * Requirements:      * - `tokenId` must exist."
      },
      "symbol()": {
        "details": "Returns the symbol of the token."
      },
      "totalSupply()": {
        "details": "Returns the total number of tokens in circulation."
      },
      "transfer(address,uint256)": {
        "details": "Transfers `tokenId` token from `msg.sender` to `to`.      * Requirements:      * - `to` cannot be the zero address. - `to` can not be the contract address. - `tokenId` token must be owned by `msg.sender`.      * Emits a {Transfer} event."
      }
    }
  },
  "userdoc": {
    "methods": {}
  }
}