{
  "contractName": "KittyStorage",
  "abi": [
    {
      "constant": true,
      "inputs": [],
      "name": "_owner",
      "outputs": [
        {
          "internalType": "address",
          "name": "",
          "type": "address"
        }
      ],
      "payable": false,
      "stateMutability": "view",
      "type": "function"
    }
  ],
  "bytecode": "0x6080604052336000806101000a81548173ffffffffffffffffffffffffffffffffffffffff021916908373ffffffffffffffffffffffffffffffffffffffff16021790555060cf806100526000396000f3fe6080604052348015600f57600080fd5b506004361060285760003560e01c8063b2bdfa7b14602d575b600080fd5b60336075565b604051808273ffffffffffffffffffffffffffffffffffffffff1673ffffffffffffffffffffffffffffffffffffffff16815260200191505060405180910390f35b6000809054906101000a900473ffffffffffffffffffffffffffffffffffffffff168156fea265627a7a72315820f77f6912f385bb607b777ededc963692b4446359a541f0bbd6f1b3ee8e813c4264736f6c634300050c0032",
  "source": "pragma solidity ^0.5.12;\r\n\r\nimport \"./Pausable.sol\";\r\nimport \"./Ownable.sol\";\r\n\r\n\r\n/**\r\n* -Allows persistent storage => shouldn't be modified\r\n*\r\n* -Inherits from Ownable and Pausable cause the scope of the fallback function in KittyProxy\r\n* will be the proxy context which means the real persistent storage is inside the parent of KittyProxy\r\n*\r\n */\r\ncontract KittyStorage is Ownable, Pausable{\r\n\r\n    /**\r\n     * Struct of a kitty\r\n     */\r\n    struct Kitty{\r\n        uint256 genes;\r\n        uint64 birthTime;\r\n        uint32 mumId;\r\n        uint32 dadId;\r\n        uint16 generation;\r\n    }\r\n\r\n    /***************************************************\r\n     * Variables\r\n     **************************************************/\r\n    uint256 internal constant _CREATION_LIMIT_GEN0 = 10;\r\n    uint256 internal _gen0Counter;\r\n    string internal constant _tokenName = \"BootcampKitties\";\r\n    string internal constant _tokenSymbol= \"BKT\";\r\n\r\n\r\n    /***************************************************\r\n     * Mappings and Arrays\r\n     **************************************************/\r\n    Kitty[] internal _kitties;\r\n\r\n    mapping (uint256 => address) internal _kittyIndexToOwner;\r\n    mapping (address => uint256) internal _ownershipTokenCount;\r\n\r\n}",
  "sourcePath": "C:\\Xdev\\bootcamp_Iot\\W69_cloneCryptoKitties\\cryptokitties-replica\\contracts\\KittyStorage.sol",
  "compiler": {
    "name": "solc",
    "version": "0.5.12+commit.7709ece9.Emscripten.clang"
  },
  "schemaVersion": "3.2.0",
  "updatedAt": "2020-09-07T22:07:33.279Z",
  "devdoc": {
    "methods": {}
  },
  "userdoc": {
    "methods": {},
    "notice": "-Allows persistent storage => shouldn't be modified  * -Inherits from Ownable and Pausable cause the scope of the fallback function in KittyProxy will be the proxy context which means the real persistent storage is inside the parent of KittyProxy  "
  }
}