{
  "contractName": "KittyContract",
  "abi": [
    {
      "anonymous": false,
      "inputs": [
        {
          "indexed": true,
          "internalType": "address",
          "name": "owner",
          "type": "address"
        },
        {
          "indexed": true,
          "internalType": "address",
          "name": "approved",
          "type": "address"
        },
        {
          "indexed": true,
          "internalType": "uint256",
          "name": "tokenId",
          "type": "uint256"
        }
      ],
      "name": "Approval",
      "type": "event"
    },
    {
      "anonymous": false,
      "inputs": [
        {
          "indexed": true,
          "internalType": "address",
          "name": "owner",
          "type": "address"
        },
        {
          "indexed": true,
          "internalType": "address",
          "name": "operator",
          "type": "address"
        },
        {
          "indexed": false,
          "internalType": "bool",
          "name": "approved",
          "type": "bool"
        }
      ],
      "name": "ApprovalForAll",
      "type": "event"
    },
    {
      "anonymous": false,
      "inputs": [
        {
          "indexed": true,
          "internalType": "address",
          "name": "owner",
          "type": "address"
        },
        {
          "indexed": true,
          "internalType": "uint256",
          "name": "kittenId",
          "type": "uint256"
        },
        {
          "indexed": false,
          "internalType": "uint256",
          "name": "mumId",
          "type": "uint256"
        },
        {
          "indexed": false,
          "internalType": "uint256",
          "name": "dadId",
          "type": "uint256"
        },
        {
          "indexed": false,
          "internalType": "uint256",
          "name": "genes",
          "type": "uint256"
        },
        {
          "indexed": false,
          "internalType": "uint256",
          "name": "birthTime",
          "type": "uint256"
        },
        {
          "indexed": false,
          "internalType": "uint256",
          "name": "generation",
          "type": "uint256"
        }
      ],
      "name": "Birth",
      "type": "event"
    },
    {
      "anonymous": false,
      "inputs": [
        {
          "indexed": true,
          "internalType": "address",
          "name": "from",
          "type": "address"
        },
        {
          "indexed": true,
          "internalType": "address",
          "name": "to",
          "type": "address"
        },
        {
          "indexed": true,
          "internalType": "uint256",
          "name": "tokenId",
          "type": "uint256"
        }
      ],
      "name": "Transfer",
      "type": "event"
    },
    {
      "constant": true,
      "inputs": [],
      "name": "_owner",
      "outputs": [
        {
          "internalType": "address",
          "name": "",
          "type": "address"
        }
      ],
      "payable": false,
      "stateMutability": "view",
      "type": "function"
    },
    {
      "constant": false,
      "inputs": [
        {
          "internalType": "address",
          "name": "to",
          "type": "address"
        },
        {
          "internalType": "uint256",
          "name": "tokenId",
          "type": "uint256"
        }
      ],
      "name": "approve",
      "outputs": [],
      "payable": false,
      "stateMutability": "nonpayable",
      "type": "function"
    },
    {
      "constant": true,
      "inputs": [
        {
          "internalType": "address",
          "name": "owner",
          "type": "address"
        }
      ],
      "name": "balanceOf",
      "outputs": [
        {
          "internalType": "uint256",
          "name": "balance",
          "type": "uint256"
        }
      ],
      "payable": false,
      "stateMutability": "view",
      "type": "function"
    },
    {
      "constant": true,
      "inputs": [
        {
          "internalType": "uint256",
          "name": "tokenId",
          "type": "uint256"
        }
      ],
      "name": "getApproved",
      "outputs": [
        {
          "internalType": "address",
          "name": "",
          "type": "address"
        }
      ],
      "payable": false,
      "stateMutability": "view",
      "type": "function"
    },
    {
      "constant": true,
      "inputs": [
        {
          "internalType": "address",
          "name": "owner",
          "type": "address"
        },
        {
          "internalType": "address",
          "name": "operator",
          "type": "address"
        }
      ],
      "name": "isApprovedForAll",
      "outputs": [
        {
          "internalType": "bool",
          "name": "",
          "type": "bool"
        }
      ],
      "payable": false,
      "stateMutability": "view",
      "type": "function"
    },
    {
      "constant": true,
      "inputs": [],
      "name": "name",
      "outputs": [
        {
          "internalType": "string",
          "name": "tokenName",
          "type": "string"
        }
      ],
      "payable": false,
      "stateMutability": "view",
      "type": "function"
    },
    {
      "constant": true,
      "inputs": [
        {
          "internalType": "uint256",
          "name": "tokenId",
          "type": "uint256"
        }
      ],
      "name": "ownerOf",
      "outputs": [
        {
          "internalType": "address",
          "name": "owner",
          "type": "address"
        }
      ],
      "payable": false,
      "stateMutability": "view",
      "type": "function"
    },
    {
      "constant": false,
      "inputs": [
        {
          "internalType": "address",
          "name": "from",
          "type": "address"
        },
        {
          "internalType": "address",
          "name": "to",
          "type": "address"
        },
        {
          "internalType": "uint256",
          "name": "tokenId",
          "type": "uint256"
        }
      ],
      "name": "safeTransferFrom",
      "outputs": [],
      "payable": false,
      "stateMutability": "nonpayable",
      "type": "function"
    },
    {
      "constant": false,
      "inputs": [
        {
          "internalType": "address",
          "name": "from",
          "type": "address"
        },
        {
          "internalType": "address",
          "name": "to",
          "type": "address"
        },
        {
          "internalType": "uint256",
          "name": "tokenId",
          "type": "uint256"
        },
        {
          "internalType": "bytes",
          "name": "data",
          "type": "bytes"
        }
      ],
      "name": "safeTransferFrom",
      "outputs": [],
      "payable": false,
      "stateMutability": "nonpayable",
      "type": "function"
    },
    {
      "constant": false,
      "inputs": [
        {
          "internalType": "address",
          "name": "operator",
          "type": "address"
        },
        {
          "internalType": "bool",
          "name": "approved",
          "type": "bool"
        }
      ],
      "name": "setApprovalForAll",
      "outputs": [],
      "payable": false,
      "stateMutability": "nonpayable",
      "type": "function"
    },
    {
      "constant": true,
      "inputs": [
        {
          "internalType": "bytes4",
          "name": "interfaceId",
          "type": "bytes4"
        }
      ],
      "name": "supportsInterface",
      "outputs": [
        {
          "internalType": "bool",
          "name": "",
          "type": "bool"
        }
      ],
      "payable": false,
      "stateMutability": "pure",
      "type": "function"
    },
    {
      "constant": true,
      "inputs": [],
      "name": "symbol",
      "outputs": [
        {
          "internalType": "string",
          "name": "tokenSymbol",
          "type": "string"
        }
      ],
      "payable": false,
      "stateMutability": "view",
      "type": "function"
    },
    {
      "constant": true,
      "inputs": [],
      "name": "totalSupply",
      "outputs": [
        {
          "internalType": "uint256",
          "name": "total",
          "type": "uint256"
        }
      ],
      "payable": false,
      "stateMutability": "view",
      "type": "function"
    },
    {
      "constant": false,
      "inputs": [
        {
          "internalType": "address",
          "name": "to",
          "type": "address"
        },
        {
          "internalType": "uint256",
          "name": "tokenId",
          "type": "uint256"
        }
      ],
      "name": "transfer",
      "outputs": [],
      "payable": false,
      "stateMutability": "nonpayable",
      "type": "function"
    },
    {
      "constant": false,
      "inputs": [
        {
          "internalType": "address",
          "name": "from",
          "type": "address"
        },
        {
          "internalType": "address",
          "name": "to",
          "type": "address"
        },
        {
          "internalType": "uint256",
          "name": "tokenId",
          "type": "uint256"
        }
      ],
      "name": "transferFrom",
      "outputs": [],
      "payable": false,
      "stateMutability": "nonpayable",
      "type": "function"
    },
    {
      "constant": true,
      "inputs": [
        {
          "internalType": "address",
          "name": "owner",
          "type": "address"
        }
      ],
      "name": "getKittiesOf",
      "outputs": [
        {
          "internalType": "uint256[]",
          "name": "",
          "type": "uint256[]"
        }
      ],
      "payable": false,
      "stateMutability": "view",
      "type": "function"
    },
    {
      "constant": true,
      "inputs": [
        {
          "internalType": "uint256",
          "name": "kittyId",
          "type": "uint256"
        }
      ],
      "name": "getKitty",
      "outputs": [
        {
          "internalType": "address",
          "name": "owner",
          "type": "address"
        },
        {
          "internalType": "uint256",
          "name": "genes",
          "type": "uint256"
        },
        {
          "internalType": "uint64",
          "name": "birthTime",
          "type": "uint64"
        },
        {
          "internalType": "uint32",
          "name": "mumId",
          "type": "uint32"
        },
        {
          "internalType": "uint32",
          "name": "dadId",
          "type": "uint32"
        },
        {
          "internalType": "uint16",
          "name": "generation",
          "type": "uint16"
        }
      ],
      "payable": false,
      "stateMutability": "view",
      "type": "function"
    },
    {
      "constant": false,
      "inputs": [
        {
          "internalType": "uint256",
          "name": "genes",
          "type": "uint256"
        }
      ],
      "name": "createKittyGen0",
      "outputs": [
        {
          "internalType": "uint256",
          "name": "newKittenId",
          "type": "uint256"
        }
      ],
      "payable": false,
      "stateMutability": "nonpayable",
      "type": "function"
    },
    {
      "constant": false,
      "inputs": [
        {
          "internalType": "uint256",
          "name": "dadId",
          "type": "uint256"
        },
        {
          "internalType": "uint256",
          "name": "mumId",
          "type": "uint256"
        }
      ],
      "name": "breed",
      "outputs": [
        {
          "internalType": "uint256",
          "name": "",
          "type": "uint256"
        }
      ],
      "payable": false,
      "stateMutability": "nonpayable",
      "type": "function"
    }
  ],
  "bytecode": "0x6080604052336000806101000a81548173ffffffffffffffffffffffffffffffffffffffff021916908373ffffffffffffffffffffffffffffffffffffffff1602179055506122a0806100536000396000f3fe608060405234801561001057600080fd5b50600436106101215760003560e01c806370a08231116100ad578063b88d4fde11610071578063b88d4fde1461068e578063d5a776ca14610793578063d9ecad7b146107d5578063e985e9c514610821578063e98b7f4d1461089d57610121565b806370a08231146104cb57806395d89b4114610523578063a22cb465146105a6578063a9059cbb146105f6578063b2bdfa7b1461064457610121565b806318160ddd116100f457806318160ddd146102ca57806323b872dd146102e857806342842e0e1461035657806348242078146103c45780636352211e1461045d57610121565b806301ffc9a71461012657806306fdde031461018b578063081812fc1461020e578063095ea7b31461027c575b600080fd5b6101716004803603602081101561013c57600080fd5b8101908080357bffffffffffffffffffffffffffffffffffffffffffffffffffffffff19169060200190929190505050610962565b604051808215151515815260200191505060405180910390f35b610193610a02565b6040518080602001828103825283818151815260200191508051906020019080838360005b838110156101d35780820151818401526020810190506101b8565b50505050905090810190601f1680156102005780820380516001836020036101000a031916815260200191505b509250505060405180910390f35b61023a6004803603602081101561022457600080fd5b8101908080359060200190929190505050610a3f565b604051808273ffffffffffffffffffffffffffffffffffffffff1673ffffffffffffffffffffffffffffffffffffffff16815260200191505060405180910390f35b6102c86004803603604081101561029257600080fd5b81019080803573ffffffffffffffffffffffffffffffffffffffff16906020019092919080359060200190929190505050610a8d565b005b6102d2610b2b565b6040518082815260200191505060405180910390f35b610354600480360360608110156102fe57600080fd5b81019080803573ffffffffffffffffffffffffffffffffffffffff169060200190929190803573ffffffffffffffffffffffffffffffffffffffff16906020019092919080359060200190929190505050610b38565b005b6103c26004803603606081101561036c57600080fd5b81019080803573ffffffffffffffffffffffffffffffffffffffff169060200190929190803573ffffffffffffffffffffffffffffffffffffffff16906020019092919080359060200190929190505050610b5d565b005b610406600480360360208110156103da57600080fd5b81019080803573ffffffffffffffffffffffffffffffffffffffff169060200190929190505050610b7d565b6040518080602001828103825283818151815260200191508051906020019060200280838360005b8381101561044957808201518184015260208101905061042e565b505050509050019250505060405180910390f35b6104896004803603602081101561047357600080fd5b8101908080359060200190929190505050610cbc565b604051808273ffffffffffffffffffffffffffffffffffffffff1673ffffffffffffffffffffffffffffffffffffffff16815260200191505060405180910390f35b61050d600480360360208110156104e157600080fd5b81019080803573ffffffffffffffffffffffffffffffffffffffff169060200190929190505050610d56565b6040518082815260200191505060405180910390f35b61052b610d9f565b6040518080602001828103825283818151815260200191508051906020019080838360005b8381101561056b578082015181840152602081019050610550565b50505050905090810190601f1680156105985780820380516001836020036101000a031916815260200191505b509250505060405180910390f35b6105f4600480360360408110156105bc57600080fd5b81019080803573ffffffffffffffffffffffffffffffffffffffff169060200190929190803515159060200190929190505050610ddc565b005b6106426004803603604081101561060c57600080fd5b81019080803573ffffffffffffffffffffffffffffffffffffffff16906020019092919080359060200190929190505050610e8d565b005b61064c611040565b604051808273ffffffffffffffffffffffffffffffffffffffff1673ffffffffffffffffffffffffffffffffffffffff16815260200191505060405180910390f35b610791600480360360808110156106a457600080fd5b81019080803573ffffffffffffffffffffffffffffffffffffffff169060200190929190803573ffffffffffffffffffffffffffffffffffffffff169060200190929190803590602001909291908035906020019064010000000081111561070b57600080fd5b82018360208201111561071d57600080fd5b8035906020019184600183028401116401000000008311171561073f57600080fd5b91908080601f016020809104026020016040519081016040528093929190818152602001838380828437600081840152601f19601f820116905080830192505050505050509192919290505050611065565b005b6107bf600480360360208110156107a957600080fd5b810190808035906020019092919050505061108c565b6040518082815260200191505060405180910390f35b61080b600480360360408110156107eb57600080fd5b81019080803590602001909291908035906020019092919050505061111e565b6040518082815260200191505060405180910390f35b6108836004803603604081101561083757600080fd5b81019080803573ffffffffffffffffffffffffffffffffffffffff169060200190929190803573ffffffffffffffffffffffffffffffffffffffff16906020019092919050505061137a565b604051808215151515815260200191505060405180910390f35b6108c9600480360360208110156108b357600080fd5b810190808035906020019092919050505061140e565b604051808773ffffffffffffffffffffffffffffffffffffffff1673ffffffffffffffffffffffffffffffffffffffff1681526020018681526020018567ffffffffffffffff1667ffffffffffffffff1681526020018463ffffffff1663ffffffff1681526020018363ffffffff1663ffffffff1681526020018261ffff1661ffff168152602001965050505050505060405180910390f35b60006380ac58cd60e01b7bffffffffffffffffffffffffffffffffffffffffffffffffffffffff1916827bffffffffffffffffffffffffffffffffffffffffffffffffffffffff191614806109fb57506301ffc9a760e01b7bffffffffffffffffffffffffffffffffffffffffffffffffffffffff1916827bffffffffffffffffffffffffffffffffffffffffffffffffffffffff1916145b9050919050565b60606040518060400160405280600f81526020017f426f6f7463616d704b6974746965730000000000000000000000000000000000815250905090565b60006002805490508210610a5257600080fd5b6005600083815260200190815260200160002060009054906101000a900473ffffffffffffffffffffffffffffffffffffffff169050919050565b610a9733826115b7565b80610aa85750610aa78282611623565b5b80610ab95750610ab8828261168f565b5b610ac257600080fd5b610acc8183611756565b808273ffffffffffffffffffffffffffffffffffffffff163373ffffffffffffffffffffffffffffffffffffffff167f8c5be1e5ebec7d5bd14f71427d1e84f3dd0314c0f7b2291e5b200ac8c7c3b92560405160405180910390a45050565b6000600280549050905090565b610b44338484846117ac565b610b4d57600080fd5b610b58838383611867565b505050565b610b7883838360405180602001604052806000815250611065565b505050565b60606000600460008473ffffffffffffffffffffffffffffffffffffffff1673ffffffffffffffffffffffffffffffffffffffff168152602001908152602001600020549050606081604051908082528060200260200182016040528015610bf45781602001602082028038833980820191505090505b509050600080905060008090505b60028054905081108015610c1557508382105b15610cb0578573ffffffffffffffffffffffffffffffffffffffff166003600083815260200190815260200160002060009054906101000a900473ffffffffffffffffffffffffffffffffffffffff1673ffffffffffffffffffffffffffffffffffffffff161415610ca35780838381518110610c8e57fe5b60200260200101818152505081806001019250505b8080600101915050610c02565b50819350505050919050565b60008160028054905011610d1b576040517f08c379a00000000000000000000000000000000000000000000000000000000081526004018080602001828103825260278152602001806122236027913960400191505060405180910390fd5b6003600083815260200190815260200160002060009054906101000a900473ffffffffffffffffffffffffffffffffffffffff169050919050565b6000600460008373ffffffffffffffffffffffffffffffffffffffff1673ffffffffffffffffffffffffffffffffffffffff168152602001908152602001600020549050919050565b60606040518060400160405280600381526020017f424b540000000000000000000000000000000000000000000000000000000000815250905090565b3373ffffffffffffffffffffffffffffffffffffffff168273ffffffffffffffffffffffffffffffffffffffff161415610e1557600080fd5b610e20338383611a23565b8173ffffffffffffffffffffffffffffffffffffffff163373ffffffffffffffffffffffffffffffffffffffff167f17307eab39ab6107e8899845ad3d59bd9653f200f220920489ca2b5937696c3183604051808215151515815260200191505060405180910390a35050565b600073ffffffffffffffffffffffffffffffffffffffff168273ffffffffffffffffffffffffffffffffffffffff161415610f30576040517f08c379a000000000000000000000000000000000000000000000000000000000815260040180806020018281038252601b8152602001807f7175657279207472616e7366657220746f20302061646472657373000000000081525060200191505060405180910390fd5b3073ffffffffffffffffffffffffffffffffffffffff168273ffffffffffffffffffffffffffffffffffffffff161415610fb5576040517f08c379a000000000000000000000000000000000000000000000000000000000815260040180806020018281038252602281526020018061224a6022913960400191505060405180910390fd5b610fbf33826115b7565b611031576040517f08c379a000000000000000000000000000000000000000000000000000000000815260040180806020018281038252601d8152602001807f73656e646572206973206e6f742074686520746f6b656e206f776e657200000081525060200191505060405180910390fd5b61103c338383611867565b5050565b6000809054906101000a900473ffffffffffffffffffffffffffffffffffffffff1681565b611071338585856117ac565b61107a57600080fd5b61108684848484611abc565b50505050565b60008060009054906101000a900473ffffffffffffffffffffffffffffffffffffffff1673ffffffffffffffffffffffffffffffffffffffff163373ffffffffffffffffffffffffffffffffffffffff16146110e757600080fd5b600a600154106110f657600080fd5b60016000815480929190600101919050555061111760008060008533611ae2565b9050919050565b600060028054905083108015611138575060028054905082105b6111aa576040517f08c379a00000000000000000000000000000000000000000000000000000000081526004018080602001828103825260208152602001807f6f6e65206f662074686520706172656e747320646f65736e277420657869737481525060200191505060405180910390fd5b6111b433846115b7565b806111c557506111c433836115b7565b5b611237576040517f08c379a000000000000000000000000000000000000000000000000000000000815260040180806020018281038252601c8152602001807f73656e646572206e6565647320746f20626520746865206f776e65720000000081525060200191505060405180910390fd5b818314156112ad576040517f08c379a00000000000000000000000000000000000000000000000000000000081526004018080602001828103825260118152602001807f6461642063616e2774206265206d756d2100000000000000000000000000000081525060200191505060405180910390fd5b6112b78383611ca8565b61130c576040517f08c379a000000000000000000000000000000000000000000000000000000000815260040180806020018281038252602e8152602001806121c6602e913960400191505060405180910390fd5b6000806113188561140e565b61ffff1695505050509250506000806113308661140e565b61ffff169550505050925050600081841161134b578161134d565b835b6001019050600061135e8685611d8b565b905061136d888a848433611ae2565b5050505050505092915050565b6000600660008473ffffffffffffffffffffffffffffffffffffffff1673ffffffffffffffffffffffffffffffffffffffff16815260200190815260200160002060008373ffffffffffffffffffffffffffffffffffffffff1673ffffffffffffffffffffffffffffffffffffffff16815260200190815260200160002060009054906101000a900460ff16905092915050565b6000806000806000808660028054905011611491576040517f08c379a000000000000000000000000000000000000000000000000000000000815260040180806020018281038252601d8152602001807f74686520746f6b656e496420646f65736e27742065786973742079657400000081525060200191505060405180910390fd5b6003600088815260200190815260200160002060009054906101000a900473ffffffffffffffffffffffffffffffffffffffff169550600287815481106114d457fe5b9060005260206000209060020201600001549450600287815481106114f557fe5b906000526020600020906002020160010160009054906101000a900467ffffffffffffffff1693506002878154811061152a57fe5b906000526020600020906002020160010160089054906101000a900463ffffffff1692506002878154811061155b57fe5b9060005260206000209060020201600101600c9054906101000a900463ffffffff1691506002878154811061158c57fe5b906000526020600020906002020160010160109054906101000a900461ffff16905091939550919395565b60008273ffffffffffffffffffffffffffffffffffffffff166003600084815260200190815260200160002060009054906101000a900473ffffffffffffffffffffffffffffffffffffffff1673ffffffffffffffffffffffffffffffffffffffff1614905092915050565b60008273ffffffffffffffffffffffffffffffffffffffff166005600084815260200190815260200160002060009054906101000a900473ffffffffffffffffffffffffffffffffffffffff1673ffffffffffffffffffffffffffffffffffffffff1614905092915050565b6000600660006003600085815260200190815260200160002060009054906101000a900473ffffffffffffffffffffffffffffffffffffffff1673ffffffffffffffffffffffffffffffffffffffff1673ffffffffffffffffffffffffffffffffffffffff16815260200190815260200160002060008473ffffffffffffffffffffffffffffffffffffffff1673ffffffffffffffffffffffffffffffffffffffff16815260200190815260200160002060009054906101000a900460ff16905092915050565b806005600084815260200190815260200160002060006101000a81548173ffffffffffffffffffffffffffffffffffffffff021916908373ffffffffffffffffffffffffffffffffffffffff1602179055505050565b600060028054905082106117bf57600080fd5b600073ffffffffffffffffffffffffffffffffffffffff168373ffffffffffffffffffffffffffffffffffffffff1614156117f957600080fd5b61180384836115b7565b61180c57600080fd5b8373ffffffffffffffffffffffffffffffffffffffff168573ffffffffffffffffffffffffffffffffffffffff16148061184c575061184b3383611623565b5b8061185d575061185c843361137a565b5b9050949350505050565b600460008373ffffffffffffffffffffffffffffffffffffffff1673ffffffffffffffffffffffffffffffffffffffff16815260200190815260200160002060008154809291906001019190505550816003600083815260200190815260200160002060006101000a81548173ffffffffffffffffffffffffffffffffffffffff021916908373ffffffffffffffffffffffffffffffffffffffff160217905550600073ffffffffffffffffffffffffffffffffffffffff168373ffffffffffffffffffffffffffffffffffffffff16146119c357600460008473ffffffffffffffffffffffffffffffffffffffff1673ffffffffffffffffffffffffffffffffffffffff16815260200190815260200160002060008154809291906001900391905055506005600082815260200190815260200160002060006101000a81549073ffffffffffffffffffffffffffffffffffffffff02191690555b808273ffffffffffffffffffffffffffffffffffffffff163373ffffffffffffffffffffffffffffffffffffffff167fddf252ad1be2c89b69c2b068fc378daa952ba7f163c4a11628f55a4df523b3ef60405160405180910390a4505050565b80600660008573ffffffffffffffffffffffffffffffffffffffff1673ffffffffffffffffffffffffffffffffffffffff16815260200190815260200160002060008473ffffffffffffffffffffffffffffffffffffffff1673ffffffffffffffffffffffffffffffffffffffff16815260200190815260200160002060006101000a81548160ff021916908315150217905550505050565b611ac884848484611f5c565b611ad157600080fd5b611adc848484611867565b50505050565b600080429050611af0612159565b6040518060a001604052808681526020018367ffffffffffffffff1681526020018963ffffffff1681526020018863ffffffff1681526020018761ffff16815250905060006001600283908060018154018082558091505090600182039060005260206000209060020201600090919290919091506000820151816000015560208201518160010160006101000a81548167ffffffffffffffff021916908367ffffffffffffffff16021790555060408201518160010160086101000a81548163ffffffff021916908363ffffffff160217905550606082015181600101600c6101000a81548163ffffffff021916908363ffffffff16021790555060808201518160010160106101000a81548161ffff021916908361ffff1602179055505050039050808573ffffffffffffffffffffffffffffffffffffffff167f7dcf8cf9480f02e61cf7d356dc33a677317dbee76b7ac90ac9a521f134e27ed48b8b8a888d604051808681526020018581526020018481526020018367ffffffffffffffff1681526020018281526020019550505050505060405180910390a3611c9960008683611867565b80935050505095945050505050565b600080600080611cb78661140e565b61ffff16955063ffffffff16955063ffffffff1695505050506000806000611cde8861140e565b61ffff16955063ffffffff16955063ffffffff16955050505060018401811415611d1f57818914158015611d125750828914155b9650505050505050611d85565b60018101841415611d4757848814158015611d3a5750858814155b9650505050505050611d85565b818514158015611d575750828514155b8015611d635750818614155b8015611d6f5750828614155b80611d7c57506000818501145b96505050505050505b92915050565b6000611d956121a2565b60008060079050600060019050600060084281611dae57fe5b069050600060ff4281611dbd57fe5b0690506000600260644481611dce57fe5b06600a4381611dd957fe5b06600a804281611de557fe5b0602010181611df057fe5b049050600a8160ff161015611e0657600a810190505b6000600a8260ff1681611e1557fe5b0660ff16148015611e3157506004831480611e305750600783145b5b15611e3d576001810190505b600193505b6080841015611f0d57828514611eb0576000848360ff161614611e875760648981611e6957fe5b0660ff16878660088110611e7957fe5b602002018181525050611eab565b60648a81611e9157fe5b0660ff16878660088110611ea157fe5b6020020181815250505b611edf565b6007851480611ebf5750600485145b15611ede578060ff16878660088110611ed457fe5b6020020181815250505b5b60648981611ee957fe5b04985060648a81611ef657fe5b049950848060019003955050600284029350611e42565b600093505b6008841015611f4c57868460088110611f2757fe5b60200201518601955060078414611f3f576064860295505b8380600101945050611f12565b8597505050505050505092915050565b6000611f6784612140565b611f745760019050612138565b60008473ffffffffffffffffffffffffffffffffffffffff1663150b7a02338887876040518563ffffffff1660e01b8152600401808573ffffffffffffffffffffffffffffffffffffffff1673ffffffffffffffffffffffffffffffffffffffff1681526020018473ffffffffffffffffffffffffffffffffffffffff1673ffffffffffffffffffffffffffffffffffffffff16815260200183815260200180602001828103825283818151815260200191508051906020019080838360005b8381101561204f578082015181840152602081019050612034565b50505050905090810190601f16801561207c5780820380516001836020036101000a031916815260200191505b5095505050505050602060405180830381600087803b15801561209e57600080fd5b505af11580156120b2573d6000803e3d6000fd5b505050506040513d60208110156120c857600080fd5b8101908080519060200190929190505050905060405180806121f4602f9139602f01905060405180910390207bffffffffffffffffffffffffffffffffffffffffffffffffffffffff1916817bffffffffffffffffffffffffffffffffffffffffffffffffffffffff1916149150505b949350505050565b600080823b905060008163ffffffff1611915050919050565b6040518060a0016040528060008152602001600067ffffffffffffffff168152602001600063ffffffff168152602001600063ffffffff168152602001600061ffff1681525090565b60405180610100016040528060089060208202803883398082019150509050509056fe6e6f206272656564696e67206265747765656e2064697265637420706172656e7473206f72207369626c696e67736f6e455243373231526563656976656428616464726573732c616464726573732c75696e743235362c6279746573294e6f206f776e65722c2074686520746f6b656e496420646f65736e2774206578697374207965747175657279207472616e7366657220746f20636f6e74726163742061646472657373a265627a7a72315820fc1ef960d2e222eb63ac5662409ba1b99edfef49a1c1fefb13bc42f333865b2064736f6c634300050c0032",
  "source": "// SPDX-License-Identifier: MIT\r\npragma solidity ^0.5.12;\r\n\r\nimport \"./KittyToken.sol\";\r\n\r\n/** \r\n@dev main logic contract \r\n*/\r\ncontract KittyContract is KittyToken {\r\n    /***************************************************\r\n    Events\r\n     **************************************************/\r\n    /**\r\n    @dev Emitted when `kittenId` is created\r\n     */\r\n    event Birth(\r\n        address indexed owner,\r\n        uint256 indexed kittenId,\r\n        uint256 mumId,\r\n        uint256 dadId,\r\n        uint256 genes,\r\n        uint256 birthTime,\r\n        uint256 generation\r\n    );\r\n\r\n    /***************************************************\r\n    External Functions\r\n     **************************************************/\r\n    /**\r\n    @dev Returns the list of tokenId of the owner\r\n     */\r\n    function getKittiesOf(address owner)\r\n        external\r\n        view\r\n        returns (uint256[] memory)\r\n    {\r\n        uint256 totalOfOwner = _ownershipTokenCount[owner];\r\n        uint256[] memory listOfKitties = new uint256[](totalOfOwner);\r\n        uint256 counter = 0;\r\n\r\n        for (\r\n            uint256 i = 0;\r\n            i < _kitties.length && counter < totalOfOwner;\r\n            i++\r\n        ) {\r\n            if (_kittyIndexToOwner[i] == owner) {\r\n                listOfKitties[counter] = i;\r\n                counter++;\r\n            }\r\n        }\r\n        return listOfKitties;\r\n    }\r\n\r\n    /***************************************************\r\n    Public Functions\r\n     **************************************************/\r\n    /**\r\n    @dev Returns informations about `kittyId`. \r\n    Requirements: \r\n    - `kittyId` must exist.\r\n     */\r\n    function getKitty(uint256 kittyId)\r\n        public\r\n        view\r\n        returns (\r\n            address owner,\r\n            uint256 genes,\r\n            uint64 birthTime,\r\n            uint32 mumId,\r\n            uint32 dadId,\r\n            uint16 generation\r\n        )\r\n    {\r\n        require(_kitties.length > kittyId, \"the tokenId doesn't exist yet\");\r\n\r\n        owner = _kittyIndexToOwner[kittyId]; //virer\r\n        genes = _kitties[kittyId].genes;\r\n        birthTime = _kitties[kittyId].birthTime;\r\n        mumId = _kitties[kittyId].mumId;\r\n        dadId = _kitties[kittyId].dadId;\r\n        generation = _kitties[kittyId].generation;\r\n    }\r\n\r\n    /**\r\n    @dev creates a kitty : generation 0 \r\n    - uses private function : _createKitty\r\n     */\r\n    function createKittyGen0(uint256 genes)\r\n        public\r\n        onlyOwner\r\n        returns (uint256 newKittenId)\r\n    {\r\n        require(_gen0Counter < _CREATION_LIMIT_GEN0);\r\n\r\n        _gen0Counter++;\r\n\r\n        //Gen0 have no owners they are own by the contract address(this)\r\n        return _createKitty(0, 0, 0, genes, msg.sender);\r\n    }\r\n\r\n    /**\r\n    @dev creates a kitty by breeding :\r\n    - sender must be the owner\r\n    - no breeding between direct parents and siblings\r\n    */\r\n    function breed(uint256 dadId, uint256 mumId) public returns (uint256) {\r\n        require(\r\n            dadId < _kitties.length && mumId < _kitties.length,\r\n            \"one of the parents doesn't exist\"\r\n        );\r\n        require(\r\n            _owns(msg.sender, dadId) || _owns(msg.sender, mumId),\r\n            \"sender needs to be the owner\"\r\n        );\r\n        require(dadId != mumId, \"dad can't be mum!\");\r\n        // require(\r\n        //     _areNotParent(dadId, mumId) && _areNotSibling(dadId, mumId),\r\n        //     \"no breeding between direct parents or siblings\"\r\n        // );\r\n        require(\r\n            _areNotParent(dadId, mumId),\r\n            \"no breeding between direct parents or siblings\"\r\n        );\r\n\r\n        (, uint256 dadDna, , , , uint256 dadGeneration) = getKitty(dadId);\r\n        (, uint256 mumDna, , , , uint256 mumGeneration) = getKitty(mumId);\r\n\r\n        uint256 generation = 1 +\r\n            (dadGeneration > mumGeneration ? dadGeneration : mumGeneration);\r\n\r\n        uint256 kittenDna = _mixDna(dadDna, mumDna);\r\n\r\n        _createKitty(mumId, dadId, generation, kittenDna, msg.sender);\r\n    }\r\n\r\n    /***************************************************\r\n    Private Functions\r\n     **************************************************/\r\n    /** \r\n     @dev mix dna from dad and mum with pseudo randomness :\r\n\r\n    - 'gene' : 16 digits => 8 pairs (2 digits each) \r\n    - as 'gene' represents 10 effects (11 22 33 44 5 5 66 77 8 8) some are expressed\r\n    with one digit others with 2\r\n    Not cutting the digits the same way the effects are represented is a first step of randomness.\r\n\r\n    NEXT STEPS :\r\n    - get a pseudo random number : now mod 255 => 0-255 = 8 bit digits (ex: 01010101)\r\n    - we take the value of the position of one bit = 1 in uint8 (0-255)\r\n    00000001 =1 // 00000010 =2 // 00000100 =4... 1000000 =128\r\n    these bits represent the position of one pair.\r\n    - we do & operation on the random number to know if we choose mum's or dad's pair\r\n    bit = 1 for mum's pair, 0 for the dad's pair, ex :\r\n    10111010 & 00000010 = 1 : the 7th pair will get the value 1 so it will be the mum's pair\r\n    - we fill the geneArray by the end so that we can do parentDna % 100 to get the last pair\r\n    then parentDna = parentDna / 100 to eliminate this step\r\n    -Finally we build the new 'gene' by moving each pair added by two digits to the left (*100)\r\n\r\n    EXTRA RANDOMNESS : one pair will be random (neither from the dad or from the mum)\r\n    - we take now mod 8 to get the position of this pair\r\n    - Finally to get the value of the pair pseudo randomly: \r\n    D = now mod 10 , U = block.number mod 10, C = block.difficulty mod 100\r\n    joker pair = (((D*10) + U) + C) / 2\r\n     */\r\n    function _mixDna(uint256 dadDna, uint256 mumDna)\r\n        private\r\n        view\r\n        returns (uint256)\r\n    {\r\n        uint256[8] memory geneArray;\r\n        uint256 newGene;\r\n        uint256 index = 7;\r\n        uint256 i = 1;\r\n        uint256 jokerIndex = now % 8;\r\n        uint8 random = uint8(now % 255);\r\n        uint8 joker = uint8(\r\n            (((now % 10) * 10) +\r\n                (block.number % 10) +\r\n                (block.difficulty % 100)) / 2\r\n        );\r\n\r\n        /*sanity check : 2 digits 'effects' are 10-99, 1 digit 'effects' 1-9*/\r\n        if (joker < 10) {\r\n            joker += 10;\r\n        }\r\n        if ((joker % 10 == 0) && (jokerIndex == 4 || jokerIndex == 7)) {\r\n            joker += 1;\r\n        }\r\n\r\n        for (i = 1; i < 128; i = i * 2) {\r\n            if (index != jokerIndex) {\r\n                if (random & i != 0) {\r\n                    geneArray[index] = uint8(mumDna % 100);\r\n                } else {\r\n                    geneArray[index] = uint8(dadDna % 100);\r\n                }\r\n            } else {\r\n                if (index == 7 || index == 4) geneArray[index] = joker;\r\n            }\r\n            mumDna = mumDna / 100;\r\n            dadDna = dadDna / 100;\r\n\r\n            index--;\r\n        }\r\n\r\n        for (i = 0; i < 8; i++) {\r\n            newGene = newGene + geneArray[i];\r\n            if (i != 7) {\r\n                newGene = newGene * 100;\r\n            }\r\n        }\r\n        return newGene;\r\n    }\r\n\r\n    /** \r\n     @dev checks that the kitties are not direct parents or siblings\r\n     */\r\n    function _areNotParent(uint256 firstId, uint256 secondId)\r\n        private\r\n        view\r\n        returns (bool)\r\n    {\r\n        (\r\n            ,\r\n            ,\r\n            ,\r\n            uint256 mumFirstId,\r\n            uint256 dadFirstId,\r\n            uint256 genFirstId\r\n        ) = getKitty(firstId);\r\n        (\r\n            ,\r\n            ,\r\n            ,\r\n            uint256 mumSecondId,\r\n            uint256 dadSecondId,\r\n            uint256 genSecondId\r\n        ) = getKitty(secondId);\r\n\r\n        // uint256 genFirstId = _kitties[firstId].generation;\r\n        // uint256 genSecondId = _kitties[secondId].generation;\r\n\r\n        if (genSecondId == genFirstId + 1) {\r\n            return (firstId != dadSecondId && firstId != mumSecondId);\r\n        } else if (genFirstId == genSecondId + 1) {\r\n            return (secondId != dadFirstId && secondId != mumFirstId);\r\n        } else {\r\n            return ((dadFirstId != dadSecondId &&\r\n                dadFirstId != mumSecondId &&\r\n                mumFirstId != dadSecondId &&\r\n                mumFirstId != mumSecondId) || (genFirstId + genSecondId == 0));\r\n        }\r\n    }\r\n\r\n    /** \r\n     @dev checks that the kitties are not siblings\r\n     */\r\n    function _areNotSibling(uint256 firstId, uint256 secondId)\r\n        private\r\n        view\r\n        returns (bool)\r\n    {\r\n        uint256 dadFirstId = _kitties[firstId].dadId;\r\n        uint256 mumFirstId = _kitties[firstId].mumId;\r\n        uint256 dadSecondId = _kitties[secondId].dadId;\r\n        uint256 mumSecondId = _kitties[secondId].mumId;\r\n\r\n        return ((dadFirstId != dadSecondId &&\r\n            dadFirstId != mumSecondId &&\r\n            mumFirstId != dadSecondId &&\r\n            mumFirstId != mumSecondId) ||\r\n            (_kitties[firstId].generation + _kitties[secondId].generation ==\r\n                0));\r\n    }\r\n\r\n    /**\r\n    @dev general function for the creation of new kitten\r\n     */\r\n    function _createKitty(\r\n        uint256 kittyMumId,\r\n        uint256 kittyDadId,\r\n        uint256 kittyGeneration,\r\n        uint256 kittyGenes,\r\n        address kittyOwner\r\n    ) private returns (uint256) {\r\n        // require(_kitties[kittyDadId].coolDownIndex < 10);\r\n        // require(_kitties[kittyDadId].coolDownEnding == 0 ||\r\n        // _kitties[kittyDadId].coolDownEnding <= block.number);\r\n        // require(_kitties[kittyMumId].coolDownIndex < 10);\r\n        // require(_kitties[kittyMumId].coolDownEnding == 0 ||\r\n        // _kitties[kittyMumId].coolDownEnding <= block.number);\r\n\r\n        uint64 date = uint64(block.timestamp); // uint64(now);\r\n        Kitty memory kitty = Kitty({ // coolDownEnding: 0,\r\n            genes: kittyGenes,\r\n            birthTime: date,\r\n            mumId: uint32(kittyMumId),\r\n            dadId: uint32(kittyDadId),\r\n            generation: uint16(kittyGeneration)\r\n            // coolDownIndex: 0\r\n        });\r\n\r\n        uint256 newKittenId = _kitties.push(kitty) - 1;\r\n\r\n        // _kitties[kittyDadId].coolDownEnding = block.number + (_kitties[kittyDadId].generation * _coolDownPeriod[_kitties[kittyDadId].coolDownIndex]);\r\n        // _kitties[kittyDadId].coolDownIndex++;\r\n        // _kitties[kittyMumId].coolDownEnding = block.number + (_kitties[kittyMumId].generation * _coolDownPeriod[_kitties[kittyMumId].coolDownIndex]);\r\n        // _kitties[kittyMumId].coolDownIndex++;\r\n\r\n        emit Birth(\r\n            kittyOwner,\r\n            newKittenId,\r\n            kittyMumId,\r\n            kittyDadId,\r\n            kittyGenes,\r\n            date,\r\n            kittyGeneration\r\n        );\r\n\r\n        _transfer(address(0), kittyOwner, newKittenId);\r\n\r\n        return newKittenId;\r\n    }\r\n}\r\n",
  "sourcePath": "C:\\Xdev\\bootcamp_Iot\\W69_cloneCryptoKitties\\cryptokitties-replica\\contracts\\KittyContract.sol",
  "compiler": {
    "name": "solc",
    "version": "0.5.12+commit.7709ece9.Emscripten.clang"
  },
  "schemaVersion": "3.2.0",
  "updatedAt": "2020-09-13T23:32:25.668Z",
  "networkType": "ethereum",
  "devdoc": {
    "details": "main logic contract ",
    "methods": {
      "breed(uint256,uint256)": {
        "details": "creates a kitty by breeding : - sender must be the owner - no breeding between direct parents and siblings"
      },
      "createKittyGen0(uint256)": {
        "details": "creates a kitty : generation 0  - uses private function : _createKitty"
      },
      "getKittiesOf(address)": {
        "details": "Returns the list of tokenId of the owner"
      },
      "getKitty(uint256)": {
        "details": "Returns informations about `kittyId`.  Requirements:  - `kittyId` must exist."
      },
      "supportsInterface(bytes4)": {
        "details": "checks if interfaceId supports IERC721 or IERC165"
      }
    }
  },
  "userdoc": {
    "methods": {
      "approve(address,uint256)": {
        "notice": "IERC721 :  Change or reaffirm the approved address for an NFT"
      },
      "balanceOf(address)": {
        "notice": "IERC721 : Returns the number of tokens in ``owner``'s account."
      },
      "getApproved(uint256)": {
        "notice": "IERC721 : Get the approved address for a single NFT"
      },
      "isApprovedForAll(address,address)": {
        "notice": "IERC721 : Query if an address is an authorized operator for another address"
      },
      "name()": {
        "notice": "IERC721 : Returns the name of the token."
      },
      "ownerOf(uint256)": {
        "notice": "IERC721 : Returns the owner of the `tokenId` token. "
      },
      "safeTransferFrom(address,address,uint256)": {
        "notice": "IERC721 : Transfers the ownership of an NFT from one address to another address"
      },
      "safeTransferFrom(address,address,uint256,bytes)": {
        "notice": "IERC721 : Transfers the ownership of an NFT from one address to another address"
      },
      "setApprovalForAll(address,bool)": {
        "notice": "IERC721 : Enable or disable approval for a third party (\"operator\") to manage all of `msg.sender`'s assets   "
      },
      "symbol()": {
        "notice": "IERC721 : Returns the symbol of the token."
      },
      "totalSupply()": {
        "notice": "IERC721 : Returns the total number of tokens in circulation."
      },
      "transfer(address,uint256)": {
        "notice": "IERC721 : Transfers `tokenId` token from `msg.sender` to `to`. - call _transfer(from, to , tokenId)"
      },
      "transferFrom(address,address,uint256)": {
        "notice": "IERC721 : Transfer ownership of an NFT -- THE CALLER IS RESPONSIBLE TO CONFIRM THAT `to` IS CAPABLE OF RECEIVING NFTS OR ELSE THEY MAY BE PERMANENTLY LOST"
      }
    }
  }
}