{
  "contractName": "Kittycontract",
  "abi": [
    {
      "anonymous": false,
      "inputs": [
        {
          "indexed": true,
          "internalType": "address",
          "name": "owner",
          "type": "address"
        },
        {
          "indexed": true,
          "internalType": "address",
          "name": "approved",
          "type": "address"
        },
        {
          "indexed": true,
          "internalType": "uint256",
          "name": "tokenId",
          "type": "uint256"
        }
      ],
      "name": "Approval",
      "type": "event"
    },
    {
      "anonymous": false,
      "inputs": [
        {
          "indexed": true,
          "internalType": "address",
          "name": "from",
          "type": "address"
        },
        {
          "indexed": true,
          "internalType": "address",
          "name": "to",
          "type": "address"
        },
        {
          "indexed": true,
          "internalType": "uint256",
          "name": "tokenId",
          "type": "uint256"
        }
      ],
      "name": "Transfer",
      "type": "event"
    },
    {
      "anonymous": false,
      "inputs": [
        {
          "indexed": true,
          "internalType": "address",
          "name": "from",
          "type": "address"
        },
        {
          "indexed": true,
          "internalType": "address",
          "name": "to",
          "type": "address"
        },
        {
          "indexed": true,
          "internalType": "uint256",
          "name": "tokenId",
          "type": "uint256"
        }
      ],
      "name": "transferEvent",
      "type": "event"
    },
    {
      "constant": true,
      "inputs": [
        {
          "internalType": "address",
          "name": "owner",
          "type": "address"
        }
      ],
      "name": "balanceOf",
      "outputs": [
        {
          "internalType": "uint256",
          "name": "balance",
          "type": "uint256"
        }
      ],
      "payable": false,
      "stateMutability": "view",
      "type": "function"
    },
    {
      "constant": true,
      "inputs": [],
      "name": "totalSupply",
      "outputs": [
        {
          "internalType": "uint256",
          "name": "total",
          "type": "uint256"
        }
      ],
      "payable": false,
      "stateMutability": "view",
      "type": "function"
    },
    {
      "constant": true,
      "inputs": [],
      "name": "name",
      "outputs": [
        {
          "internalType": "string",
          "name": "tokenName",
          "type": "string"
        }
      ],
      "payable": false,
      "stateMutability": "view",
      "type": "function"
    },
    {
      "constant": true,
      "inputs": [],
      "name": "symbol",
      "outputs": [
        {
          "internalType": "string",
          "name": "tokenSymbol",
          "type": "string"
        }
      ],
      "payable": false,
      "stateMutability": "view",
      "type": "function"
    },
    {
      "constant": true,
      "inputs": [
        {
          "internalType": "uint256",
          "name": "tokenId",
          "type": "uint256"
        }
      ],
      "name": "ownerOf",
      "outputs": [
        {
          "internalType": "address",
          "name": "owner",
          "type": "address"
        }
      ],
      "payable": false,
      "stateMutability": "view",
      "type": "function"
    },
    {
      "constant": false,
      "inputs": [
        {
          "internalType": "address",
          "name": "to",
          "type": "address"
        },
        {
          "internalType": "uint256",
          "name": "tokenId",
          "type": "uint256"
        }
      ],
      "name": "transfer",
      "outputs": [],
      "payable": false,
      "stateMutability": "nonpayable",
      "type": "function"
    }
  ],
  "bytecode": "0x608060405234801561001057600080fd5b50610b3b806100206000396000f3fe608060405234801561001057600080fd5b50600436106100625760003560e01c806306fdde031461006757806318160ddd146100ea5780636352211e1461010857806370a082311461017657806395d89b41146101ce578063a9059cbb14610251575b600080fd5b61006f61029f565b6040518080602001828103825283818151815260200191508051906020019080838360005b838110156100af578082015181840152602081019050610094565b50505050905090810190601f1680156100dc5780820380516001836020036101000a031916815260200191505b509250505060405180910390f35b6100f26102dc565b6040518082815260200191505060405180910390f35b6101346004803603602081101561011e57600080fd5b81019080803590602001909291905050506102e9565b604051808273ffffffffffffffffffffffffffffffffffffffff1673ffffffffffffffffffffffffffffffffffffffff16815260200191505060405180910390f35b6101b86004803603602081101561018c57600080fd5b81019080803573ffffffffffffffffffffffffffffffffffffffff16906020019092919050505061038e565b6040518082815260200191505060405180910390f35b6101d66103da565b6040518080602001828103825283818151815260200191508051906020019080838360005b838110156102165780820151818401526020810190506101fb565b50505050905090810190601f1680156102435780820380516001836020036101000a031916815260200191505b509250505060405180910390f35b61029d6004803603604081101561026757600080fd5b81019080803573ffffffffffffffffffffffffffffffffffffffff16906020019092919080359060200190929190505050610417565b005b60606040518060400160405280600f81526020017f426f6f7463616d704b6974746965730000000000000000000000000000000000815250905090565b6000600180549050905090565b60008160018054905011610348576040517f08c379a0000000000000000000000000000000000000000000000000000000008152600401808060200182810382526027815260200180610abe6027913960400191505060405180910390fd5b6001828154811061035557fe5b906000526020600020906002020160010160009054906101000a900473ffffffffffffffffffffffffffffffffffffffff169050919050565b6000600260008373ffffffffffffffffffffffffffffffffffffffff1673ffffffffffffffffffffffffffffffffffffffff168152602001908152602001600020805490509050919050565b60606040518060400160405280600381526020017f424b540000000000000000000000000000000000000000000000000000000000815250905090565b600073ffffffffffffffffffffffffffffffffffffffff168273ffffffffffffffffffffffffffffffffffffffff1614156104ba576040517f08c379a000000000000000000000000000000000000000000000000000000000815260040180806020018281038252601b8152602001807f7175657279207472616e7366657220746f20302061646472657373000000000081525060200191505060405180910390fd5b3073ffffffffffffffffffffffffffffffffffffffff168273ffffffffffffffffffffffffffffffffffffffff16141561053f576040517f08c379a0000000000000000000000000000000000000000000000000000000008152600401808060200182810382526022815260200180610ae56022913960400191505060405180910390fd5b61054933826105ca565b6105bb576040517f08c379a000000000000000000000000000000000000000000000000000000000815260040180806020018281038252601d8152602001807f73656e646572206973206e6f742074686520746f6b656e206f776e657200000081525060200191505060405180910390fd5b6105c6338383610641565b5050565b60008273ffffffffffffffffffffffffffffffffffffffff16600183815481106105f057fe5b906000526020600020906002020160010160009054906101000a900473ffffffffffffffffffffffffffffffffffffffff1673ffffffffffffffffffffffffffffffffffffffff1614905092915050565b600073ffffffffffffffffffffffffffffffffffffffff168373ffffffffffffffffffffffffffffffffffffffff1614156106e4576040517f08c379a000000000000000000000000000000000000000000000000000000000815260040180806020018281038252601d8152602001807f7175657279207472616e736665722066726f6d2030206164647265737300000081525060200191505060405180910390fd5b81600182815481106106f257fe5b906000526020600020906002020160010160006101000a81548173ffffffffffffffffffffffffffffffffffffffff021916908373ffffffffffffffffffffffffffffffffffffffff160217905550600260008373ffffffffffffffffffffffffffffffffffffffff1673ffffffffffffffffffffffffffffffffffffffff168152602001908152602001600020819080600181540180825580915050906001820390600052602060002001600090919290919091505550600073ffffffffffffffffffffffffffffffffffffffff168373ffffffffffffffffffffffffffffffffffffffff16146107e9576107e88382610849565b5b808273ffffffffffffffffffffffffffffffffffffffff163373ffffffffffffffffffffffffffffffffffffffff167f5d439cf3a1f6215b41908e5b0b300f39679a3ff1cc010691c1d4ec4d0e2a4ebb60405160405180910390a4505050565b6060600260008473ffffffffffffffffffffffffffffffffffffffff1673ffffffffffffffffffffffffffffffffffffffff1681526020019081526020016000208054806020026020016040519081016040528092919081815260200182805480156108d457602002820191906000526020600020905b8154815260200190600101908083116108c0575b50505050509050600080905060008090505b6001835103811015610955578281815181106108fe57fe5b602002602001015184141561091257600191505b81156109485782600182018151811061092757fe5b602002602001015183828151811061093b57fe5b6020026020010181815250505b80806001019150506108e6565b508160018351038151811061096657fe5b60200260200101600081525081600260008673ffffffffffffffffffffffffffffffffffffffff1673ffffffffffffffffffffffffffffffffffffffff16815260200190815260200160002090805190602001906109c5929190610a1f565b50600260008573ffffffffffffffffffffffffffffffffffffffff1673ffffffffffffffffffffffffffffffffffffffff168152602001908152602001600020805480919060019003610a189190610a6c565b5050505050565b828054828255906000526020600020908101928215610a5b579160200282015b82811115610a5a578251825591602001919060010190610a3f565b5b509050610a689190610a98565b5090565b815481835581811115610a9357818360005260206000209182019101610a929190610a98565b5b505050565b610aba91905b80821115610ab6576000816000905550600101610a9e565b5090565b9056fe4e6f206f776e65722c2074686520746f6b656e496420646f65736e2774206578697374207965747175657279207472616e7366657220746f20636f6e74726163742061646472657373a265627a7a72315820046dc60f56c0295ae4e90ce8652a9759c3c3550a7e07a9dfcb6f1e25f24dc83e64736f6c63430005100032",
  "source": "// SPDX-License-Identifier: MIT\r\npragma solidity ^0.5.12;\r\n\r\nimport \"./IERC721.sol\";\r\n\r\n/*\r\nWeek7 day5 we don't implement approval at the moment\r\n*/\r\ncontract Kittycontract is IERC721 {\r\n\r\n    /**\r\n     * Struct of a kitty at the moment\r\n     */\r\n    struct Kitty{\r\n        uint256 genes;\r\n        address owner;\r\n\r\n        //Filip code\r\n        // uint64 birthTime;\r\n        // uint32 mumId;\r\n        // uint32 dadId;\r\n        // uint16 generation;\r\n    }\r\n\r\n    /***************************************************\r\n     * Variables\r\n     **************************************************/\r\n    uint256 private _totalSupply;\r\n\r\n    string private constant _tokenName = \"BootcampKitties\";\r\n    string private constant _tokenSymbol= \"BKT\";\r\n\r\n    /***************************************************\r\n     * Mappings and Arrays\r\n     **************************************************/\r\n    Kitty[] private _kitties;\r\n    mapping(address => uint256[]) private _ownerTokens;\r\n\r\n    //Filip code\r\n    // mapping (uint256 => address) public kittyIndexToOwner;\r\n    // mapping (address => uint256) ownershipTokenCount;\r\n\r\n\r\n    /***************************************************\r\n     * Events\r\n     **************************************************/\r\n    /**\r\n     * @dev Emitted when `tokenId` token is transfered from `from` to `to`.\r\n     */\r\n    event transferEvent(address indexed from, address indexed to, uint256 indexed tokenId);\r\n\r\n    // /**\r\n    //  * @dev Emitted when `owner` enables `approved` to manage the `tokenId` token.\r\n    //  */\r\n    // event Approval(address indexed owner, address indexed approved, uint256 indexed tokenId);\r\n\r\n\r\n    /***************************************************\r\n     * Functions\r\n     **************************************************/\r\n    /**\r\n     * @dev Returns the number of tokens in ``owner``'s account.\r\n     */\r\n    function balanceOf(address owner) external view returns(uint256 balance){\r\n        return _ownerTokens[owner].length;\r\n\r\n        //Filip code\r\n        //return ownershipTokenCount[owner];\r\n    }\r\n\r\n    /**\r\n     * @dev Returns the total number of tokens in circulation.\r\n     */\r\n    function totalSupply() external view returns (uint256 total){\r\n        return _kitties.length;\r\n    }\r\n\r\n    /**\r\n     * @dev Returns the name of the token.\r\n     */\r\n    function name() external view returns (string memory tokenName){\r\n        return _tokenName;\r\n    }\r\n    \r\n    /**\r\n     * @dev Returns the symbol of the token.\r\n     */\r\n    function symbol() external view returns (string memory tokenSymbol){\r\n        return _tokenSymbol;\r\n    }\r\n        \r\n    /**\r\n     * @dev Returns the owner of the `tokenId` token.\r\n     *\r\n     * Requirements:\r\n     *\r\n     * - `tokenId` must exist.\r\n     */\r\n    function ownerOf(uint256 tokenId) external view returns (address owner){\r\n        require(_kitties.length > tokenId, \"No owner, the tokenId doesn't exist yet\");\r\n   \r\n        return _kitties[tokenId].owner;\r\n    }\r\n\r\n     /** @dev Transfers `tokenId` token from `msg.sender` to `to`.\r\n     *\r\n     * Requirements:\r\n     *\r\n     * - `to` cannot be the zero address.\r\n     * - `to` can not be the contract address.\r\n     * - `tokenId` token must be owned by `msg.sender`.\r\n     *\r\n     * Emits a {Transfer} event.\r\n     */\r\n    function transfer(address to, uint256 tokenId) external {\r\n        require(to != address(0), \"query transfer to 0 address\");\r\n        require(to != address(this), \"query transfer to contract address\");\r\n        require(_owns(msg.sender, tokenId), \"sender is not the token owner\");\r\n\r\n        _transfer(msg.sender, to, tokenId);\r\n\r\n    }\r\n\r\n    function _transfer(address from, address to, uint256 tokenId) private {\r\n        require(from != address(0), \"query transfer from 0 address\");\r\n\r\n        _kitties[tokenId].owner = to;\r\n        _ownerTokens[to].push(tokenId);\r\n\r\n        if(from != address(0)){\r\n            removeKittyFromOwner(from, tokenId);\r\n        }\r\n\r\n        emit transferEvent(msg.sender, to, tokenId);\r\n    }   \r\n\r\n    /**\r\n     * @dev helper : check if owner owns this token\r\n     */\r\n     function _owns(address pretender, uint256 tokenId) private view returns(bool isOwner) {\r\n         return (_kitties[tokenId].owner == pretender);\r\n     }\r\n\r\n    /** \r\n    * @dev helper : delete a tokenId from owner's token array\r\n    **/\r\n    function removeKittyFromOwner(address owner, uint256 tokenId) private {\r\n       uint256[] memory listOfKitties = _ownerTokens[owner];\r\n\r\n        bool found = false;\r\n        for (uint i = 0; i < listOfKitties.length-1; i++){\r\n            if(tokenId == listOfKitties[i]){\r\n                found = true;\r\n            }\r\n            if(found){\r\n                listOfKitties[i] = listOfKitties[i+1];\r\n            }\r\n        }\r\n        delete listOfKitties[listOfKitties.length-1];\r\n\r\n        _ownerTokens[owner] = listOfKitties;\r\n        _ownerTokens[owner].length--;\r\n    }\r\n}",
  "sourcePath": "C:\\Xdev\\bootcamp_Iot\\W69_cloneCryptoKitties\\cryptokitties-replica\\contracts\\Kittycontract.sol",
  "compiler": {
    "name": "solc",
    "version": "0.5.16+commit.9c3226ce.Emscripten.clang"
  },
  "schemaVersion": "3.2.0",
  "updatedAt": "2020-08-24T02:00:22.511Z",
  "networkType": "ethereum",
  "devdoc": {
    "methods": {
      "balanceOf(address)": {
        "details": "Returns the number of tokens in ``owner``'s account."
      },
      "name()": {
        "details": "Returns the name of the token."
      },
      "ownerOf(uint256)": {
        "details": "Returns the owner of the `tokenId` token.      * Requirements:      * - `tokenId` must exist."
      },
      "symbol()": {
        "details": "Returns the symbol of the token."
      },
      "totalSupply()": {
        "details": "Returns the total number of tokens in circulation."
      },
      "transfer(address,uint256)": {
        "details": "Transfers `tokenId` token from `msg.sender` to `to`.      * Requirements:      * - `to` cannot be the zero address. - `to` can not be the contract address. - `tokenId` token must be owned by `msg.sender`.      * Emits a {Transfer} event."
      }
    }
  },
  "userdoc": {
    "methods": {}
  }
}