{
  "contractName": "KittyProxy",
  "abi": [
    {
      "inputs": [
        {
          "internalType": "address",
          "name": "KittyContractAddress",
          "type": "address"
        }
      ],
      "payable": false,
      "stateMutability": "nonpayable",
      "type": "constructor"
    },
    {
      "payable": true,
      "stateMutability": "payable",
      "type": "fallback"
    },
    {
      "constant": true,
      "inputs": [],
      "name": "_gen0Counter",
      "outputs": [
        {
          "internalType": "uint256",
          "name": "",
          "type": "uint256"
        }
      ],
      "payable": false,
      "stateMutability": "view",
      "type": "function"
    },
    {
      "constant": true,
      "inputs": [
        {
          "internalType": "uint256",
          "name": "",
          "type": "uint256"
        }
      ],
      "name": "_kittyIndexToOwner",
      "outputs": [
        {
          "internalType": "address",
          "name": "",
          "type": "address"
        }
      ],
      "payable": false,
      "stateMutability": "view",
      "type": "function"
    },
    {
      "constant": true,
      "inputs": [],
      "name": "_owner",
      "outputs": [
        {
          "internalType": "address",
          "name": "",
          "type": "address"
        }
      ],
      "payable": false,
      "stateMutability": "view",
      "type": "function"
    },
    {
      "constant": false,
      "inputs": [
        {
          "internalType": "address",
          "name": "newKittyContractAddress",
          "type": "address"
        }
      ],
      "name": "upgrade",
      "outputs": [],
      "payable": false,
      "stateMutability": "nonpayable",
      "type": "function"
    }
  ],
  "bytecode": "0x608060405234801561001057600080fd5b506040516104853803806104858339818101604052602081101561003357600080fd5b8101908080519060200190929190505050336000806101000a81548173ffffffffffffffffffffffffffffffffffffffff021916908373ffffffffffffffffffffffffffffffffffffffff16021790555080600560006101000a81548173ffffffffffffffffffffffffffffffffffffffff021916908373ffffffffffffffffffffffffffffffffffffffff160217905550506103b0806100d56000396000f3fe60806040526004361061003f5760003560e01c80630900f010146101325780638b8bc5e514610183578063b2bdfa7b146101fe578063f227d80d14610255575b6000600560009054906101000a900473ffffffffffffffffffffffffffffffffffffffff169050600073ffffffffffffffffffffffffffffffffffffffff16600560009054906101000a900473ffffffffffffffffffffffffffffffffffffffff1673ffffffffffffffffffffffffffffffffffffffff1614156100c257600080fd5b60606000368080601f016020809104026020016040519081016040528093929190818152602001838380828437600081840152601f19601f820116905080830192505050505050509050600080825160208401855af43d604051816000823e826000811461012e578282f35b8282fd5b34801561013e57600080fd5b506101816004803603602081101561015557600080fd5b81019080803573ffffffffffffffffffffffffffffffffffffffff169060200190929190505050610280565b005b34801561018f57600080fd5b506101bc600480360360208110156101a657600080fd5b810190808035906020019092919050505061031d565b604051808273ffffffffffffffffffffffffffffffffffffffff1673ffffffffffffffffffffffffffffffffffffffff16815260200191505060405180910390f35b34801561020a57600080fd5b50610213610350565b604051808273ffffffffffffffffffffffffffffffffffffffff1673ffffffffffffffffffffffffffffffffffffffff16815260200191505060405180910390f35b34801561026157600080fd5b5061026a610375565b6040518082815260200191505060405180910390f35b6000809054906101000a900473ffffffffffffffffffffffffffffffffffffffff1673ffffffffffffffffffffffffffffffffffffffff163373ffffffffffffffffffffffffffffffffffffffff16146102d957600080fd5b80600560006101000a81548173ffffffffffffffffffffffffffffffffffffffff021916908373ffffffffffffffffffffffffffffffffffffffff16021790555050565b60036020528060005260406000206000915054906101000a900473ffffffffffffffffffffffffffffffffffffffff1681565b6000809054906101000a900473ffffffffffffffffffffffffffffffffffffffff1681565b6001548156fea265627a7a723158207c376e6cd7f8bc1e73d870a093d61f8bba8fe5ac827c137e0fbf19c4d8f0b2d864736f6c634300050c0032",
  "source": "pragma solidity ^0.5.12;\r\n\r\nimport \"./KittyStorage.sol\";\r\n\r\n/**\r\n*  @dev -It's the persistent connexion between users and KittyContract => shouldn't be modified\r\n*/\r\ncontract KittyProxy is KittyStorage{\r\n\r\n    /***************************************************\r\n     * Variables\r\n     **************************************************/\r\n    /**\r\n    * address of the main contract\r\n    */\r\n    address _currentAddressOfKittyLogic;\r\n\r\n    /***************************************************\r\n     * Constructor\r\n     **************************************************/\r\n    /**\r\n    * @dev set the address of the main contract at deployment\r\n    */\r\n    constructor(address KittyContractAddress) public {\r\n\r\n        _currentAddressOfKittyLogic = KittyContractAddress;\r\n    }\r\n\r\n    /***************************************************\r\n     * Functions\r\n     **************************************************/\r\n    /**\r\n    * @dev updates the address of the main contract\r\n    */\r\n    function upgrade(address newKittyContractAddress) public onlyOwner {\r\n\r\n        _currentAddressOfKittyLogic = newKittyContractAddress;\r\n    }\r\n\r\n    /**\r\n    * @dev fallback function (=default function triggered when we call a function that is not there\r\n    *\r\n    * -forwards function calls to the main contract with the proxy context (KittyStorage : its parent)\r\n    */\r\n    function() payable external {\r\n\r\n        //redirection to _currentAddressOfKittyLogic\r\n        address implementation = _currentAddressOfKittyLogic;\r\n        require(_currentAddressOfKittyLogic != address(0));\r\n        bytes memory data = msg.data;\r\n\r\n        //assembly code : gives a pointer to the contract function, if operation failed (result = 0) => revert\r\n        assembly {\r\n            let result := delegatecall(gas, implementation, add(data, 0x20), mload(data), 0 ,0)\r\n\r\n            let size := returndatasize\r\n\r\n            let ptr := mload(0x40)\r\n            returndatacopy(ptr, 0, size)\r\n            switch result\r\n            case 0 {revert(ptr, size)}\r\n            default {return(ptr, size)}\r\n        }\r\n    }\r\n}",
  "sourcePath": "C:\\Xdev\\bootcamp_Iot\\W69_cloneCryptoKitties\\cryptokitties-replica\\contracts\\KittyProxy.sol",
  "compiler": {
    "name": "solc",
    "version": "0.5.12+commit.7709ece9.Emscripten.clang"
  },
  "schemaVersion": "3.2.0",
  "updatedAt": "2020-09-02T22:17:03.228Z",
  "networkType": "ethereum",
  "devdoc": {
    "details": "-It's the persistent connexion between users and KittyContract => shouldn't be modified",
    "methods": {
      "constructor": {
        "details": "set the address of the main contract at deployment"
      },
      "upgrade(address)": {
        "details": "updates the address of the main contract"
      }
    }
  },
  "userdoc": {
    "methods": {}
  }
}