{
  "contractName": "Ownable",
  "abi": [
    {
      "inputs": [],
      "payable": false,
      "stateMutability": "nonpayable",
      "type": "constructor"
    },
    {
      "constant": true,
      "inputs": [],
      "name": "_owner",
      "outputs": [
        {
          "internalType": "address",
          "name": "",
          "type": "address"
        }
      ],
      "payable": false,
      "stateMutability": "view",
      "type": "function"
    }
  ],
  "bytecode": "0x608060405234801561001057600080fd5b50336000806101000a81548173ffffffffffffffffffffffffffffffffffffffff021916908373ffffffffffffffffffffffffffffffffffffffff16021790555060cf8061005f6000396000f3fe6080604052348015600f57600080fd5b506004361060285760003560e01c8063b2bdfa7b14602d575b600080fd5b60336075565b604051808273ffffffffffffffffffffffffffffffffffffffff1673ffffffffffffffffffffffffffffffffffffffff16815260200191505060405180910390f35b6000809054906101000a900473ffffffffffffffffffffffffffffffffffffffff168156fea265627a7a723158201b95dbfd40808de5bf885b4b5f76764c5a63e0bcc2caa8f63ebcd836f0564ccc64736f6c634300050c0032",
  "source": "// SPDX-License-Identifier: MIT\r\npragma solidity ^0.5.12;\r\n\r\n/**\r\n@dev -Allows to give access to some functions only at the owner\r\n*/\r\ncontract Ownable {\r\n\r\n    /**\r\n    storage of the owner's address\r\n    */\r\n    address public _owner;\r\n    \r\n    /**\r\n    @dev modifier : checks that sender is the owner\r\n    */\r\n     modifier onlyOwner(){\r\n        require(msg.sender == _owner);\r\n        _; \r\n    }\r\n    \r\n    /**\r\n    @dev records the owner's address at the creation of the contract\r\n    */\r\n    constructor() public{\r\n        _owner = msg.sender;\r\n    }\r\n    \r\n}",
  "sourcePath": "C:\\Xdev\\bootcamp_Iot\\W69_cloneCryptoKitties\\cryptokitties-replica\\contracts\\Ownable.sol",
  "compiler": {
    "name": "solc",
    "version": "0.5.12+commit.7709ece9.Emscripten.clang"
  },
  "schemaVersion": "3.2.0",
  "updatedAt": "2020-09-13T23:32:23.322Z",
  "devdoc": {
    "details": "-Allows to give access to some functions only at the owner",
    "methods": {
      "constructor": {
        "details": "records the owner's address at the creation of the contract"
      }
    }
  },
  "userdoc": {
    "methods": {}
  }
}